{
  "_format": "hh-sol-artifact-1",
  "contractName": "Governance",
  "sourceName": "contracts/facets/governance/Governance.sol",
  "abi": [
    {
      "anonymous": false,
      "inputs": [
        {
          "indexed": true,
          "internalType": "bytes32",
          "name": "txHash",
          "type": "bytes32"
        },
        {
          "indexed": true,
          "internalType": "address",
          "name": "target",
          "type": "address"
        },
        {
          "indexed": false,
          "internalType": "uint256",
          "name": "value",
          "type": "uint256"
        },
        {
          "indexed": false,
          "internalType": "string",
          "name": "signature",
          "type": "string"
        },
        {
          "indexed": false,
          "internalType": "bytes",
          "name": "data",
          "type": "bytes"
        },
        {
          "indexed": false,
          "internalType": "uint256",
          "name": "eta",
          "type": "uint256"
        }
      ],
      "name": "CancelTransaction",
      "type": "event"
    },
    {
      "anonymous": false,
      "inputs": [
        {
          "indexed": true,
          "internalType": "bytes32",
          "name": "txHash",
          "type": "bytes32"
        },
        {
          "indexed": true,
          "internalType": "address",
          "name": "target",
          "type": "address"
        },
        {
          "indexed": false,
          "internalType": "uint256",
          "name": "value",
          "type": "uint256"
        },
        {
          "indexed": false,
          "internalType": "string",
          "name": "signature",
          "type": "string"
        },
        {
          "indexed": false,
          "internalType": "bytes",
          "name": "data",
          "type": "bytes"
        },
        {
          "indexed": false,
          "internalType": "uint256",
          "name": "eta",
          "type": "uint256"
        }
      ],
      "name": "ExecuteTransaction",
      "type": "event"
    },
    {
      "anonymous": false,
      "inputs": [
        {
          "indexed": true,
          "internalType": "uint128",
          "name": "id",
          "type": "uint128"
        }
      ],
      "name": "ProposalCanceled",
      "type": "event"
    },
    {
      "anonymous": false,
      "inputs": [
        {
          "indexed": true,
          "internalType": "uint128",
          "name": "id",
          "type": "uint128"
        },
        {
          "indexed": true,
          "internalType": "address",
          "name": "proposer",
          "type": "address"
        },
        {
          "indexed": false,
          "internalType": "address[]",
          "name": "targets",
          "type": "address[]"
        },
        {
          "indexed": false,
          "internalType": "uint256[]",
          "name": "values",
          "type": "uint256[]"
        },
        {
          "indexed": false,
          "internalType": "string[]",
          "name": "signatures",
          "type": "string[]"
        },
        {
          "indexed": false,
          "internalType": "bytes[]",
          "name": "calldatas",
          "type": "bytes[]"
        },
        {
          "indexed": false,
          "internalType": "uint256",
          "name": "startBlock",
          "type": "uint256"
        },
        {
          "indexed": false,
          "internalType": "uint256",
          "name": "endBlock",
          "type": "uint256"
        },
        {
          "indexed": false,
          "internalType": "string",
          "name": "description",
          "type": "string"
        }
      ],
      "name": "ProposalCreated",
      "type": "event"
    },
    {
      "anonymous": false,
      "inputs": [
        {
          "indexed": true,
          "internalType": "uint128",
          "name": "id",
          "type": "uint128"
        }
      ],
      "name": "ProposalExecuted",
      "type": "event"
    },
    {
      "anonymous": false,
      "inputs": [
        {
          "indexed": true,
          "internalType": "uint128",
          "name": "id",
          "type": "uint128"
        },
        {
          "indexed": false,
          "internalType": "uint256",
          "name": "eta",
          "type": "uint256"
        }
      ],
      "name": "ProposalQueued",
      "type": "event"
    },
    {
      "anonymous": false,
      "inputs": [
        {
          "indexed": true,
          "internalType": "bytes32",
          "name": "txHash",
          "type": "bytes32"
        },
        {
          "indexed": true,
          "internalType": "address",
          "name": "target",
          "type": "address"
        },
        {
          "indexed": false,
          "internalType": "uint256",
          "name": "value",
          "type": "uint256"
        },
        {
          "indexed": false,
          "internalType": "string",
          "name": "signature",
          "type": "string"
        },
        {
          "indexed": false,
          "internalType": "bytes",
          "name": "data",
          "type": "bytes"
        },
        {
          "indexed": false,
          "internalType": "uint256",
          "name": "eta",
          "type": "uint256"
        }
      ],
      "name": "QueueTransaction",
      "type": "event"
    },
    {
      "anonymous": false,
      "inputs": [
        {
          "indexed": true,
          "internalType": "address",
          "name": "voter",
          "type": "address"
        },
        {
          "indexed": true,
          "internalType": "uint128",
          "name": "proposalId",
          "type": "uint128"
        },
        {
          "indexed": false,
          "internalType": "bool",
          "name": "support",
          "type": "bool"
        },
        {
          "indexed": false,
          "internalType": "uint96",
          "name": "votes",
          "type": "uint96"
        }
      ],
      "name": "VoteCast",
      "type": "event"
    },
    {
      "inputs": [
        {
          "internalType": "uint128",
          "name": "_proposalId",
          "type": "uint128"
        }
      ],
      "name": "cancel",
      "outputs": [],
      "stateMutability": "nonpayable",
      "type": "function"
    },
    {
      "inputs": [
        {
          "internalType": "uint128",
          "name": "_proposalId",
          "type": "uint128"
        },
        {
          "internalType": "bool",
          "name": "_support",
          "type": "bool"
        }
      ],
      "name": "castVote",
      "outputs": [],
      "stateMutability": "nonpayable",
      "type": "function"
    },
    {
      "inputs": [
        {
          "internalType": "uint128",
          "name": "_proposalId",
          "type": "uint128"
        },
        {
          "internalType": "bool",
          "name": "_support",
          "type": "bool"
        },
        {
          "internalType": "bytes",
          "name": "_signature",
          "type": "bytes"
        }
      ],
      "name": "castVoteBySig",
      "outputs": [],
      "stateMutability": "nonpayable",
      "type": "function"
    },
    {
      "inputs": [
        {
          "internalType": "uint128",
          "name": "_proposalId",
          "type": "uint128"
        }
      ],
      "name": "execute",
      "outputs": [],
      "stateMutability": "payable",
      "type": "function"
    },
    {
      "inputs": [
        {
          "internalType": "uint128",
          "name": "_proposalId",
          "type": "uint128"
        }
      ],
      "name": "getActions",
      "outputs": [
        {
          "internalType": "address[]",
          "name": "targets",
          "type": "address[]"
        },
        {
          "internalType": "uint256[]",
          "name": "values",
          "type": "uint256[]"
        },
        {
          "internalType": "string[]",
          "name": "signatures",
          "type": "string[]"
        },
        {
          "internalType": "bytes[]",
          "name": "calldatas",
          "type": "bytes[]"
        }
      ],
      "stateMutability": "view",
      "type": "function"
    },
    {
      "inputs": [],
      "name": "getGovernanceParameters",
      "outputs": [
        {
          "internalType": "uint32",
          "name": "",
          "type": "uint32"
        },
        {
          "internalType": "uint32",
          "name": "",
          "type": "uint32"
        },
        {
          "internalType": "uint32",
          "name": "",
          "type": "uint32"
        },
        {
          "internalType": "uint32",
          "name": "",
          "type": "uint32"
        },
        {
          "internalType": "uint32",
          "name": "",
          "type": "uint32"
        },
        {
          "internalType": "uint32",
          "name": "",
          "type": "uint32"
        },
        {
          "internalType": "uint32",
          "name": "",
          "type": "uint32"
        },
        {
          "internalType": "uint32",
          "name": "",
          "type": "uint32"
        }
      ],
      "stateMutability": "view",
      "type": "function"
    },
    {
      "inputs": [
        {
          "internalType": "bytes32",
          "name": "_txHash",
          "type": "bytes32"
        }
      ],
      "name": "getIsQueuedTransaction",
      "outputs": [
        {
          "internalType": "bool",
          "name": "",
          "type": "bool"
        }
      ],
      "stateMutability": "view",
      "type": "function"
    },
    {
      "inputs": [
        {
          "internalType": "address",
          "name": "_proposer",
          "type": "address"
        }
      ],
      "name": "getLatestProposalId",
      "outputs": [
        {
          "internalType": "uint128",
          "name": "",
          "type": "uint128"
        }
      ],
      "stateMutability": "view",
      "type": "function"
    },
    {
      "inputs": [
        {
          "internalType": "uint128",
          "name": "_proposalId",
          "type": "uint128"
        }
      ],
      "name": "getProposal",
      "outputs": [
        {
          "internalType": "bool",
          "name": "",
          "type": "bool"
        },
        {
          "internalType": "bool",
          "name": "",
          "type": "bool"
        },
        {
          "internalType": "address",
          "name": "",
          "type": "address"
        },
        {
          "internalType": "uint32",
          "name": "",
          "type": "uint32"
        },
        {
          "internalType": "uint96",
          "name": "",
          "type": "uint96"
        },
        {
          "internalType": "uint96",
          "name": "",
          "type": "uint96"
        },
        {
          "internalType": "uint128",
          "name": "",
          "type": "uint128"
        },
        {
          "internalType": "uint256",
          "name": "",
          "type": "uint256"
        },
        {
          "internalType": "uint256",
          "name": "",
          "type": "uint256"
        },
        {
          "internalType": "uint256",
          "name": "",
          "type": "uint256"
        }
      ],
      "stateMutability": "view",
      "type": "function"
    },
    {
      "inputs": [],
      "name": "getProposalCount",
      "outputs": [
        {
          "internalType": "uint128",
          "name": "",
          "type": "uint128"
        }
      ],
      "stateMutability": "view",
      "type": "function"
    },
    {
      "inputs": [],
      "name": "getProposerThresholdCount",
      "outputs": [
        {
          "internalType": "uint96",
          "name": "",
          "type": "uint96"
        }
      ],
      "stateMutability": "view",
      "type": "function"
    },
    {
      "inputs": [],
      "name": "getQuorumVoteCount",
      "outputs": [
        {
          "internalType": "uint96",
          "name": "",
          "type": "uint96"
        }
      ],
      "stateMutability": "view",
      "type": "function"
    },
    {
      "inputs": [
        {
          "internalType": "uint128",
          "name": "_proposalId",
          "type": "uint128"
        },
        {
          "internalType": "address",
          "name": "_voter",
          "type": "address"
        }
      ],
      "name": "getReceipt",
      "outputs": [
        {
          "components": [
            {
              "internalType": "bool",
              "name": "hasVoted",
              "type": "bool"
            },
            {
              "internalType": "bool",
              "name": "support",
              "type": "bool"
            },
            {
              "internalType": "uint96",
              "name": "votes",
              "type": "uint96"
            }
          ],
          "internalType": "struct GovernanceDefs.Receipt",
          "name": "",
          "type": "tuple"
        }
      ],
      "stateMutability": "view",
      "type": "function"
    },
    {
      "inputs": [],
      "name": "getSkipRemainingVotingThresholdCount",
      "outputs": [
        {
          "internalType": "uint96",
          "name": "",
          "type": "uint96"
        }
      ],
      "stateMutability": "view",
      "type": "function"
    },
    {
      "inputs": [
        {
          "internalType": "uint32",
          "name": "_proposalMaxOperations",
          "type": "uint32"
        },
        {
          "internalType": "uint32",
          "name": "_votingDelay",
          "type": "uint32"
        },
        {
          "internalType": "uint32",
          "name": "_votingPeriod",
          "type": "uint32"
        },
        {
          "internalType": "uint32",
          "name": "_gracePeriod",
          "type": "uint32"
        },
        {
          "internalType": "uint32",
          "name": "_timelockDelay",
          "type": "uint32"
        },
        {
          "internalType": "uint32",
          "name": "_quorumVotes",
          "type": "uint32"
        },
        {
          "internalType": "uint32",
          "name": "_proposalThreshold",
          "type": "uint32"
        },
        {
          "internalType": "uint32",
          "name": "_skipRemainingVotingThreshold",
          "type": "uint32"
        }
      ],
      "name": "initialize",
      "outputs": [],
      "stateMutability": "nonpayable",
      "type": "function"
    },
    {
      "inputs": [],
      "name": "name",
      "outputs": [
        {
          "internalType": "string",
          "name": "",
          "type": "string"
        }
      ],
      "stateMutability": "view",
      "type": "function"
    },
    {
      "inputs": [
        {
          "internalType": "address[]",
          "name": "_targets",
          "type": "address[]"
        },
        {
          "internalType": "uint256[]",
          "name": "_values",
          "type": "uint256[]"
        },
        {
          "internalType": "string[]",
          "name": "_signatures",
          "type": "string[]"
        },
        {
          "internalType": "bytes[]",
          "name": "_calldatas",
          "type": "bytes[]"
        },
        {
          "internalType": "string",
          "name": "_description",
          "type": "string"
        }
      ],
      "name": "propose",
      "outputs": [
        {
          "internalType": "uint128",
          "name": "",
          "type": "uint128"
        }
      ],
      "stateMutability": "nonpayable",
      "type": "function"
    },
    {
      "inputs": [
        {
          "internalType": "uint128",
          "name": "_proposalId",
          "type": "uint128"
        }
      ],
      "name": "queue",
      "outputs": [],
      "stateMutability": "nonpayable",
      "type": "function"
    },
    {
      "inputs": [
        {
          "internalType": "uint32",
          "name": "_gracePeriod",
          "type": "uint32"
        }
      ],
      "name": "setGracePeriod",
      "outputs": [],
      "stateMutability": "nonpayable",
      "type": "function"
    },
    {
      "inputs": [
        {
          "internalType": "uint32",
          "name": "_proposalMaxOperations",
          "type": "uint32"
        }
      ],
      "name": "setProposalMaxOperations",
      "outputs": [],
      "stateMutability": "nonpayable",
      "type": "function"
    },
    {
      "inputs": [
        {
          "internalType": "uint32",
          "name": "_proposalThreshold",
          "type": "uint32"
        }
      ],
      "name": "setProposalThreshold",
      "outputs": [],
      "stateMutability": "nonpayable",
      "type": "function"
    },
    {
      "inputs": [
        {
          "internalType": "uint32",
          "name": "_quorumVotes",
          "type": "uint32"
        }
      ],
      "name": "setQuorumVotes",
      "outputs": [],
      "stateMutability": "nonpayable",
      "type": "function"
    },
    {
      "inputs": [
        {
          "internalType": "uint32",
          "name": "_skipRemainingVotingThreshold",
          "type": "uint32"
        }
      ],
      "name": "setSkipRemainingVotingThreshold",
      "outputs": [],
      "stateMutability": "nonpayable",
      "type": "function"
    },
    {
      "inputs": [
        {
          "internalType": "uint32",
          "name": "_timelockDelay",
          "type": "uint32"
        }
      ],
      "name": "setTimelockDelay",
      "outputs": [],
      "stateMutability": "nonpayable",
      "type": "function"
    },
    {
      "inputs": [
        {
          "internalType": "uint32",
          "name": "_votingDelay",
          "type": "uint32"
        }
      ],
      "name": "setVotingDelay",
      "outputs": [],
      "stateMutability": "nonpayable",
      "type": "function"
    },
    {
      "inputs": [
        {
          "internalType": "uint32",
          "name": "_votingPeriod",
          "type": "uint32"
        }
      ],
      "name": "setVotingPeriod",
      "outputs": [],
      "stateMutability": "nonpayable",
      "type": "function"
    },
    {
      "inputs": [
        {
          "internalType": "uint128",
          "name": "_proposalId",
          "type": "uint128"
        }
      ],
      "name": "state",
      "outputs": [
        {
          "internalType": "enum GovernanceDefs.ProposalState",
          "name": "",
          "type": "uint8"
        }
      ],
      "stateMutability": "view",
      "type": "function"
    },
    {
      "inputs": [],
      "name": "version",
      "outputs": [
        {
          "internalType": "string",
          "name": "",
          "type": "string"
        }
      ],
      "stateMutability": "view",
      "type": "function"
    }
  ],
  "bytecode": "0x608060405234801561001057600080fd5b506158e080620000216000396000f3fe6080604052600436106101b75760003560e01c8063627c2d62116100ec5780639f8795971161008a578063da95691a11610064578063da95691a146104f5578063df18e80914610515578063e540d01d14610535578063e8fb754114610555576101b7565b80639f879597146104a0578063c08cc02d146104c0578063cf82a28d146104d5576101b7565b806381649d06116100c657806381649d06146103f95780638915d33d146104195780638d49dab7146104465780639043217b14610473576101b7565b8063627c2d6214610389578063797da9cf146103a95780637d41c011146103c9576101b7565b806340b9bdbb116101595780634dec3739116101335780634dec37391461032357806354fd4d50146103365780635835cf301461034b5780635931041c14610374576101b7565b806340b9bdbb146102ce5780634222ddb6146102ee5780634dabdc9a1461030e576101b7565b806329da22e41161019557806329da22e41461022957806336a7f565146102565780633a0fa657146102765780633b586ea0146102ac576101b7565b806306fdde03146101bc578063127d0ff7146101e7578063153e13db14610209575b600080fd5b3480156101c857600080fd5b506101d1610575565b6040516101de91906153b9565b60405180910390f35b3480156101f357600080fd5b50610207610202366004614224565b6105ae565b005b34801561021557600080fd5b50610207610224366004614242565b610664565b34801561023557600080fd5b506102496102443660046140fb565b610857565b6040516101de91906152b8565b34801561026257600080fd5b506102076102713660046141a1565b610880565b34801561028257600080fd5b50610296610291366004614119565b610a43565b6040516101de9a999897969594939291906152c6565b3480156102b857600080fd5b506102c1610e5b565b6040516101de9190615671565b3480156102da57600080fd5b506102076102e9366004614224565b610f90565b3480156102fa57600080fd5b50610207610309366004614224565b611051565b34801561031a57600080fd5b506102c1611106565b610207610331366004614119565b6111f1565b34801561034257600080fd5b506101d1611777565b34801561035757600080fd5b506103606117b0565b6040516101de989796959493929190615607565b34801561038057600080fd5b506102c161185e565b34801561039557600080fd5b506102076103a4366004614224565b61192d565b3480156103b557600080fd5b506102076103c4366004614224565b611a0e565b3480156103d557600080fd5b506103e96103e4366004614119565b611ae6565b6040516101de94939291906151e3565b34801561040557600080fd5b50610207610414366004614119565b611ddf565b34801561042557600080fd5b50610439610434366004614137565b6121c2565b6040516101de919061559a565b34801561045257600080fd5b50610466610461366004613ff1565b61225d565b6040516101de91906155a8565b34801561047f57600080fd5b5061049361048e366004614119565b6122ab565b6040516101de91906153ab565b3480156104ac57600080fd5b506102076104bb366004614224565b6124d2565b3480156104cc57600080fd5b5061046661257f565b3480156104e157600080fd5b506102076104f0366004614119565b6125b2565b34801561050157600080fd5b5061046661051036600461400f565b6128e6565b34801561052157600080fd5b50610207610530366004614171565b61307e565b34801561054157600080fd5b50610207610550366004614224565b61308d565b34801561056157600080fd5b50610207610570366004614224565b61313e565b6040518060400160405280600e81526020017f44445820476f7665726e616e636500000000000000000000000000000000000081525081565b60006105b86131e3565b600181015490915073ffffffffffffffffffffffffffffffffffffffff163314610617576040517f08c379a000000000000000000000000000000000000000000000000000000000815260040161060e9061542a565b60405180910390fd5b6000610621613207565b600401805463ffffffff909416640100000000027fffffffffffffffffffffffffffffffffffffffffffffffff00000000ffffffff909416939093179092555050565b600061066e6131e3565b600181015490915073ffffffffffffffffffffffffffffffffffffffff1633146106c4576040517f08c379a000000000000000000000000000000000000000000000000000000000815260040161060e9061542a565b60006106ce613207565b90506106d98361322b565b6106e3838661326f565b898160040160006101000a81548163ffffffff021916908363ffffffff160217905550888160040160046101000a81548163ffffffff021916908363ffffffff160217905550878160040160086101000a81548163ffffffff021916908363ffffffff1602179055508681600401600c6101000a81548163ffffffff021916908363ffffffff160217905550858160050160046101000a81548163ffffffff021916908363ffffffff160217905550848160040160186101000a81548163ffffffff021916908363ffffffff1602179055508381600401601c6101000a81548163ffffffff021916908363ffffffff160217905550828160050160006101000a81548163ffffffff021916908363ffffffff16021790555060018160030160405161080d90615155565b90815260405190819003602001902080549115157fffffffffffffffffffffffffffffffffffffffffffffffffffffffffffffff0090921691909117905550505050505050505050565b600080610862613207565b60008481526002909101602052604090205460ff169150505b919050565b60006108ff6040518060400160405280600e81526020017f44445820476f7665726e616e63650000000000000000000000000000000000008152506040518060400160405280600181526020017f31000000000000000000000000000000000000000000000000000000000000008152506108f96132b4565b306132b8565b905060006109356040518060400160405280876fffffffffffffffffffffffffffffffff1681526020018615158152508361330f565b905060008360008151811061094657fe5b016020015160f81c9050600061095d85600161332a565b9050600061096c86602161332a565b90506000600185858585604051600081526020016040526040516109939493929190615376565b6020604051602081039080840390855afa1580156109b5573d6000803e3d6000fd5b50506040517fffffffffffffffffffffffffffffffffffffffffffffffffffffffffffffffe0015191505073ffffffffffffffffffffffffffffffffffffffff8116610a2d576040517f08c379a000000000000000000000000000000000000000000000000000000000815260040161060e906153ea565b610a38818a8a613373565b505050505050505050565b6000806000806000806000806000806000610a5c613207565b9050610a66613a5f565b6fffffffffffffffffffffffffffffffff8d81166000908152602084815260409182902082516101c081018452815460ff8082161515835261010080830490911615158386015262010000820473ffffffffffffffffffffffffffffffffffffffff168387015276010000000000000000000000000000000000000000000090910463ffffffff16606083015260018301546bffffffffffffffffffffffff80821660808501526c010000000000000000000000009091041660a0830152600283015490951660c0820152600382015460e08201526004820180548551818602810186019096528086529195929492860193909190830182828015610ba157602002820191906000526020600020905b815473ffffffffffffffffffffffffffffffffffffffff168152600190910190602001808311610b76575b5050505050815260200160058201805480602002602001604051908101604052809291908181526020016000905b82821015610c985760008481526020908190208301805460408051601f60027fffffffffffffffffffffffffffffffffffffffffffffffffffffffffffffffff610100600187161502019094169390930492830185900485028101850190915281815292830182828015610c845780601f10610c5957610100808354040283529160200191610c84565b820191906000526020600020905b815481529060010190602001808311610c6757829003601f168201915b505050505081526020019060010190610bcf565b50505050815260200160068201805480602002602001604051908101604052809291908181526020016000905b82821015610d8e5760008481526020908190208301805460408051601f60027fffffffffffffffffffffffffffffffffffffffffffffffffffffffffffffffff610100600187161502019094169390930492830185900485028101850190915281815292830182828015610d7a5780601f10610d4f57610100808354040283529160200191610d7a565b820191906000526020600020905b815481529060010190602001808311610d5d57829003601f168201915b505050505081526020019060010190610cc5565b50505050815260200160078201805480602002602001604051908101604052809291908181526020018280548015610de557602002820191906000526020600020905b815481526020019060010190808311610dd1575b50505050508152602001600882015481526020016009820154815250509050806000015181602001518260400151836060015184608001518560a001518660c001518760e00151886101800151896101a001519b509b509b509b509b509b509b509b509b509b5050509193959799509193959799565b600080610e666131e3565b90506000610e72613207565b90506000610f3a604051806060016040528060228152602001615889602291398460020160009054906101000a900473ffffffffffffffffffffffffffffffffffffffff1673ffffffffffffffffffffffffffffffffffffffff166318160ddd6040518163ffffffff1660e01b815260040160206040518083038186803b158015610efc57600080fd5b505afa158015610f10573d6000803e3d6000fd5b505050506040513d601f19601f82011682018060405250810190610f349190614206565b90613714565b6004830154909150610f88906bffffffffffffffffffffffff83169063ffffffff7c010000000000000000000000000000000000000000000000000000000090910481169060649061376616565b935050505090565b6000610f9a6131e3565b600181015490915073ffffffffffffffffffffffffffffffffffffffff163314610ff0576040517f08c379a000000000000000000000000000000000000000000000000000000000815260040161060e9061542a565b6000610ffa613207565b600401805463ffffffff9094167c0100000000000000000000000000000000000000000000000000000000027bffffffffffffffffffffffffffffffffffffffffffffffffffffffff909416939093179092555050565b600061105b6131e3565b600181015490915073ffffffffffffffffffffffffffffffffffffffff1633146110b1576040517f08c379a000000000000000000000000000000000000000000000000000000000815260040161060e9061542a565b60006110bb613207565b600401805463ffffffff9094166c01000000000000000000000000027fffffffffffffffffffffffffffffffff00000000ffffffffffffffffffffffff909416939093179092555050565b6000806111116131e3565b9050600061111d613207565b905060006111a7604051806060016040528060228152602001615889602291398460020160009054906101000a900473ffffffffffffffffffffffffffffffffffffffff1673ffffffffffffffffffffffffffffffffffffffff166318160ddd6040518163ffffffff1660e01b815260040160206040518083038186803b158015610efc57600080fd5b6004830154909150610f88906bffffffffffffffffffffffff83169063ffffffff780100000000000000000000000000000000000000000000000090910481169060649061376616565b60006111fb613207565b90506005611208836122ab565b600781111561121357fe5b1461124a576040517f08c379a000000000000000000000000000000000000000000000000000000000815260040161060e906154aa565b6fffffffffffffffffffffffffffffffff8216600090815260208290526040902060038101544210156112a9576040517f08c379a000000000000000000000000000000000000000000000000000000000815260040161060e906154ea565b600482015460038201546112d69163ffffffff6c010000000000000000000000009091048116906137d016565b42111561130f576040517f08c379a000000000000000000000000000000000000000000000000000000000815260040161060e9061549a565b80547fffffffffffffffffffffffffffffffffffffffffffffffffffffffffffff00ff1661010017815560005b600482015481101561173457600082600401828154811061135957fe5b60009182526020909120015460078401805473ffffffffffffffffffffffffffffffffffffffff909216918490811061138e57fe5b90600052602060002001548460050184815481106113a857fe5b906000526020600020018560060185815481106113c157fe5b9060005260206000200186600301546040516020016113e4959493929190615189565b604080517fffffffffffffffffffffffffffffffffffffffffffffffffffffffffffffffe0818403018152918152815160209283012060008181526002880190935291205490915060ff16611465576040517f08c379a000000000000000000000000000000000000000000000000000000000815260040161060e906153da565b6000818152600285016020526040902080547fffffffffffffffffffffffffffffffffffffffffffffffffffffffffffffff0016905560058301805460609190849081106114af57fe5b60009182526020909120015460027fffffffffffffffffffffffffffffffffffffffffffffffffffffffffffffffff6101006001841615020190911604611522576040517f08c379a000000000000000000000000000000000000000000000000000000000815260040161060e906154da565b83600501838154811061153157fe5b906000526020600020016040516115489190615149565b604051809103902084600601848154811061155f57fe5b9060005260206000200160405160200161157a929190615121565b6040516020818303038152906040529050600084600401848154811061159c57fe5b60009182526020909120015460078601805473ffffffffffffffffffffffffffffffffffffffff90921691869081106115d157fe5b9060005260206000200154836040516115ea919061513d565b60006040518083038185875af1925050503d8060008114611627576040519150601f19603f3d011682016040523d82523d6000602084013e61162c565b606091505b5050905080611667576040517f08c379a000000000000000000000000000000000000000000000000000000000815260040161060e9061553a565b84600401848154811061167657fe5b60009182526020909120015460078601805473ffffffffffffffffffffffffffffffffffffffff9092169185917fa560e3198060a2f10670c1ec5b403077ea6ae93ca8de1c32b451dc1a943cd6e791889081106116cf57fe5b90600052602060002001548860050188815481106116e957fe5b9060005260206000200189600601898154811061170257fe5b906000526020600020018a6003015460405161172194939291906155c4565b60405180910390a350505060010161133c565b506040516fffffffffffffffffffffffffffffffff8416907fa5b6b9979cc28a80c05ff448579065ecfedb3ea4a145aed79a5d69ba11979acb90600090a2505050565b6040518060400160405280600181526020017f310000000000000000000000000000000000000000000000000000000000000081525081565b60008060008060008060008060006117c6613207565b600481015460059091015463ffffffff8083169c64010000000080850483169d5068010000000000000000850483169c506c01000000000000000000000000850483169b5083048216995078010000000000000000000000000000000000000000000000008404821698507c010000000000000000000000000000000000000000000000000000000090930481169650169350915050565b6000806118696131e3565b90506000611875613207565b905060006118ff604051806060016040528060228152602001615889602291398460020160009054906101000a900473ffffffffffffffffffffffffffffffffffffffff1673ffffffffffffffffffffffffffffffffffffffff166318160ddd6040518163ffffffff1660e01b815260040160206040518083038186803b158015610efc57600080fd5b6005830154909150610f88906bffffffffffffffffffffffff83169063ffffffff9081169060649061376616565b60006119376131e3565b600181015490915073ffffffffffffffffffffffffffffffffffffffff16331461198d576040517f08c379a000000000000000000000000000000000000000000000000000000000815260040161060e9061542a565b6000611997613207565b90506119a28361322b565b60048101546119d49084907801000000000000000000000000000000000000000000000000900463ffffffff1661326f565b60050180547fffffffffffffffffffffffffffffffffffffffffffffffffffffffff000000001663ffffffff939093169290921790915550565b6000611a186131e3565b600181015490915073ffffffffffffffffffffffffffffffffffffffff163314611a6e576040517f08c379a000000000000000000000000000000000000000000000000000000000815260040161060e9061542a565b6000611a78613207565b6005810154909150611a909063ffffffff168461326f565b600401805463ffffffff9093167801000000000000000000000000000000000000000000000000027fffffffff00000000ffffffffffffffffffffffffffffffffffffffffffffffff9093169290921790915550565b6060806060806000611af6613207565b90506000816000016000886fffffffffffffffffffffffffffffffff16815260200190815260200160002090508060040181600701826005018360060183805480602002602001604051908101604052809291908181526020018280548015611b9557602002820191906000526020600020905b815473ffffffffffffffffffffffffffffffffffffffff168152600190910190602001808311611b6a575b5050505050935082805480602002602001604051908101604052809291908181526020018280548015611be757602002820191906000526020600020905b815481526020019060010190808311611bd3575b5050505050925081805480602002602001604051908101604052809291908181526020016000905b82821015611cd85760008481526020908190208301805460408051601f60027fffffffffffffffffffffffffffffffffffffffffffffffffffffffffffffffff610100600187161502019094169390930492830185900485028101850190915281815292830182828015611cc45780601f10611c9957610100808354040283529160200191611cc4565b820191906000526020600020905b815481529060010190602001808311611ca757829003601f168201915b505050505081526020019060010190611c0f565b50505050915080805480602002602001604051908101604052809291908181526020016000905b82821015611dc85760008481526020908190208301805460408051601f60027fffffffffffffffffffffffffffffffffffffffffffffffffffffffffffffffff610100600187161502019094169390930492830185900485028101850190915281815292830182828015611db45780601f10611d8957610100808354040283529160200191611db4565b820191906000526020600020905b815481529060010190602001808311611d9757829003601f168201915b505050505081526020019060010190611cff565b505050509050955095509550955050509193509193565b6000611de96131e3565b90506000611df5613207565b90506000611e02846122ab565b90506007816007811115611e1257fe5b1415611e4a576040517f08c379a000000000000000000000000000000000000000000000000000000000815260040161060e9061550a565b6fffffffffffffffffffffffffffffffff84166000908152602083905260409020611e73610e5b565b600285015482546bffffffffffffffffffffffff929092169173ffffffffffffffffffffffffffffffffffffffff9182169163782d6fe19162010000900416611ebd43600161380f565b6040518363ffffffff1660e01b8152600401611eda92919061517b565b60206040518083038186803b158015611ef257600080fd5b505afa158015611f06573d6000803e3d6000fd5b505050506040513d601f19601f82011682018060405250810190611f2a91906142f2565b6bffffffffffffffffffffffff1610611f6f576040517f08c379a000000000000000000000000000000000000000000000000000000000815260040161060e9061552a565b80547fffffffffffffffffffffffffffffffffffffffffffffffffffffffffffffff0016600117815560005b600482015481101561217d576000826004018281548110611fb857fe5b60009182526020909120015460078401805473ffffffffffffffffffffffffffffffffffffffff9092169184908110611fed57fe5b906000526020600020015484600501848154811061200757fe5b9060005260206000200185600601858154811061202057fe5b906000526020600020018660030154604051602001612043959493929190615189565b604080517fffffffffffffffffffffffffffffffffffffffffffffffffffffffffffffffe08184030181529181528151602092830120600081815260028901909352912080547fffffffffffffffffffffffffffffffffffffffffffffffffffffffffffffff0016905560048401805491925090839081106120c157fe5b60009182526020909120015460078401805473ffffffffffffffffffffffffffffffffffffffff9092169183917f2fffc091a501fd91bfbff27141450d3acb40fb8e6d8382b243ec7a812a3aaf87918690811061211a57fe5b906000526020600020015486600501868154811061213457fe5b9060005260206000200187600601878154811061214d57fe5b90600052602060002001886003015460405161216c94939291906155c4565b60405180910390a350600101611f9b565b506040516fffffffffffffffffffffffffffffffff8616907f81e6198d2fb0ad99c9719ab07925cd0afe44adc4e3ea207262ffde68a15442f690600090a25050505050565b6121ca613ad2565b60006121d4613207565b6fffffffffffffffffffffffffffffffff851660009081526020918252604080822073ffffffffffffffffffffffffffffffffffffffff87168352600a018352908190208151606081018352905460ff80821615158352610100820416151593820193909352620100009092046bffffffffffffffffffffffff16908201529150505b92915050565b600080612268613207565b73ffffffffffffffffffffffffffffffffffffffff84166000908152600190910160205260409020546fffffffffffffffffffffffffffffffff16915050919050565b6000806122b6613207565b60058101549091506fffffffffffffffffffffffffffffffff80851668010000000000000000909204161080159061230057506000836fffffffffffffffffffffffffffffffff16115b612336576040517f08c379a000000000000000000000000000000000000000000000000000000000815260040161060e9061556a565b6fffffffffffffffffffffffffffffffff83166000908152602082905260409020805460ff161561236c5760029250505061087b565b806008015443116123825760009250505061087b565b806009015443111580156123b2575061239961185e565b60018201546bffffffffffffffffffffffff9182169116105b80156123ec57506123c161185e565b60018201546bffffffffffffffffffffffff9182166c01000000000000000000000000909104909116105b156123fc5760019250505061087b565b60018101546bffffffffffffffffffffffff6c0100000000000000000000000082048116911611158061244b5750612432611106565b60018201546bffffffffffffffffffffffff9182169116105b1561245b5760039250505061087b565b600381015461246f5760049250505061087b565b8054610100900460ff16156124895760079250505061087b565b600482015460038201546124b69163ffffffff6c010000000000000000000000009091048116906137d016565b42106124c75760069250505061087b565b60059250505061087b565b60006124dc6131e3565b600181015490915073ffffffffffffffffffffffffffffffffffffffff163314612532576040517f08c379a000000000000000000000000000000000000000000000000000000000815260040161060e9061542a565b600061253c613207565b600501805463ffffffff909416640100000000027fffffffffffffffffffffffffffffffffffffffffffffffff00000000ffffffff909416939093179092555050565b60008061258a613207565b600501546801000000000000000090046fffffffffffffffffffffffffffffffff1692915050565b60006125bc613207565b905060046125c9836122ab565b60078111156125d457fe5b1461260b576040517f08c379a000000000000000000000000000000000000000000000000000000000815260040161060e9061540a565b6fffffffffffffffffffffffffffffffff82166000908152602082905260408120805490919061266090429063ffffffff7601000000000000000000000000000000000000000000009091048116906137d016565b905060005b600483015481101561288c57600083600401828154811061268257fe5b60009182526020909120015460078501805473ffffffffffffffffffffffffffffffffffffffff90921691849081106126b757fe5b90600052602060002001548560050184815481106126d157fe5b906000526020600020018660060185815481106126ea57fe5b9060005260206000200186604051602001612709959493929190615189565b604080517fffffffffffffffffffffffffffffffffffffffffffffffffffffffffffffffe0818403018152918152815160209283012060008181526002890190935291205490915060ff161561278b576040517f08c379a000000000000000000000000000000000000000000000000000000000815260040161060e906154ba565b6000818152600286016020526040902080547fffffffffffffffffffffffffffffffffffffffffffffffffffffffffffffff00166001179055600484018054839081106127d457fe5b60009182526020909120015460078501805473ffffffffffffffffffffffffffffffffffffffff9092169183917f76e2796dc3a81d57b0e8504b647febcbeeb5f4af818e164f11eef8131a6a763f918690811061282d57fe5b906000526020600020015487600501868154811061284757fe5b9060005260206000200188600601878154811061286057fe5b906000526020600020018860405161287b94939291906155c4565b60405180910390a350600101612665565b50808260030181905550836fffffffffffffffffffffffffffffffff167f8d91654f54c3db83588868f2aeadd42e2ada088e489019677df8fbd6fd53f44a826040516128d891906155b6565b60405180910390a250505050565b6000806128f16131e3565b905060006128fd613207565b9050612907610e5b565b60028301546bffffffffffffffffffffffff919091169073ffffffffffffffffffffffffffffffffffffffff1663782d6fe13361294543600161380f565b6040518363ffffffff1660e01b8152600401612962929190615160565b60206040518083038186803b15801561297a57600080fd5b505afa15801561298e573d6000803e3d6000fd5b505050506040513d601f19601f820116820180604052508101906129b291906142f2565b6bffffffffffffffffffffffff1610156129f8576040517f08c379a000000000000000000000000000000000000000000000000000000000815260040161060e9061551a565b86518851148015612a0a575085518851145b8015612a17575084518851145b612a4d576040517f08c379a000000000000000000000000000000000000000000000000000000000815260040161060e906154fa565b8751612a85576040517f08c379a000000000000000000000000000000000000000000000000000000000815260040161060e9061546a565b6004810154885163ffffffff9091161015612acc576040517f08c379a000000000000000000000000000000000000000000000000000000000815260040161060e9061554a565b3360009081526001820160205260409020546fffffffffffffffffffffffffffffffff1615612bb257336000908152600182016020526040812054612b22906fffffffffffffffffffffffffffffffff166122ab565b90506001816007811115612b3257fe5b1415612b6a576040517f08c379a000000000000000000000000000000000000000000000000000000000815260040161060e9061545a565b6000816007811115612b7857fe5b1415612bb0576040517f08c379a000000000000000000000000000000000000000000000000000000000815260040161060e9061544a565b505b6004810154600090612bd790439063ffffffff6401000000009091048116906137d016565b60058301805460016fffffffffffffffffffffffffffffffff6801000000000000000080840482169290920116027fffffffffffffffff00000000000000000000000000000000ffffffffffffffff9091161790559050612c36613a5f565b604080516101c08101825260008082526020820152339181019190915260608101612c608a613851565b63ffffffff16815260200160006bffffffffffffffffffffffff16815260200160006bffffffffffffffffffffffff1681526020018460050160089054906101000a90046fffffffffffffffffffffffffffffffff166fffffffffffffffffffffffffffffffff168152602001600081526020018b81526020018981526020018881526020018a8152602001838152602001612d1f8560040160089054906101000a900463ffffffff1663ffffffff16856137d090919063ffffffff16565b905260c0810180516fffffffffffffffffffffffffffffffff9081166000908152602087815260409182902085518154838801519488015160608901517fffffffffffffffffffffffffffffffffffffffffffffffffffffffffffffff00909216921515929092177fffffffffffffffffffffffffffffffffffffffffffffffffffffffffffff00ff166101009515158602177fffffffffffffffffffff0000000000000000000000000000000000000000ffff166201000073ffffffffffffffffffffffffffffffffffffffff90931692909202919091177fffffffffffff00000000ffffffffffffffffffffffffffffffffffffffffffff1676010000000000000000000000000000000000000000000063ffffffff90921691909102178155608086015160018201805460a08901517fffffffffffffffffffffffffffffffffffffffff0000000000000000000000009091166bffffffffffffffffffffffff938416177fffffffffffffffff000000000000000000000000ffffffffffffffffffffffff166c01000000000000000000000000939091169290920291909117905593516002850180547fffffffffffffffffffffffffffffffff0000000000000000000000000000000016919094161790925560e0840151600384015583015180519394508493612f1a9260048501920190613af2565b506101208201518051612f37916005840191602090910190613b7c565b506101408201518051612f54916006840191602090910190613bd5565b506101608201518051612f71916007840191602090910190613c2e565b5061018082015160088201556101a09091015160099091015560c08101805160408084015173ffffffffffffffffffffffffffffffffffffffff166000908152600187016020522080547fffffffffffffffffffffffffffffffff00000000000000000000000000000000166fffffffffffffffffffffffffffffffff92831617905590516004850154339291909116907f4344004de829f82200288f3aa86b97eaed23a68ab1365f15dcda5943b484fbf9908d908d908d908d90899061304f90829068010000000000000000900463ffffffff908116906137d016565b8e6040516130639796959493929190615230565b60405180910390a360c0015193505050505b95945050505050565b613089338383613373565b5050565b60006130976131e3565b600181015490915073ffffffffffffffffffffffffffffffffffffffff1633146130ed576040517f08c379a000000000000000000000000000000000000000000000000000000000815260040161060e9061542a565b60006130f7613207565b600401805463ffffffff90941668010000000000000000027fffffffffffffffffffffffffffffffffffffffff00000000ffffffffffffffff909416939093179092555050565b60006131486131e3565b600181015490915073ffffffffffffffffffffffffffffffffffffffff16331461319e576040517f08c379a000000000000000000000000000000000000000000000000000000000815260040161060e9061542a565b60006131a8613207565b60040180547fffffffffffffffffffffffffffffffffffffffffffffffffffffffff000000001663ffffffff94909416939093179092555050565b7f2282c0f253670b5926c98189f0f7727e7f3274999270900ce9f60067a35b312990565b7f10cab7087b6b13b2798fd3e8c3c59a15fd4f78429d92f08fa8a764e06981ddad90565b60328163ffffffff16101561326c576040517f08c379a000000000000000000000000000000000000000000000000000000000815260040161060e9061555a565b50565b8063ffffffff168263ffffffff1611613089576040517f08c379a000000000000000000000000000000000000000000000000000000000815260040161060e9061557a565b4690565b8351602094850120835193850193909320604080517f8b73c3c69bb8fe3d512ecc4cf759cc79239f7b179b0ffacaa9a75d522b39400f815295860194909452928401929092526060830152608082015260a0902090565b60006133238261331e856138d2565b613935565b9392505050565b6000816020018351101561336a576040517f08c379a000000000000000000000000000000000000000000000000000000000815260040161060e9061543a565b50016020015190565b600061337d6131e3565b90506000613389613207565b90506001613396856122ab565b60078111156133a157fe5b146133d8576040517f08c379a000000000000000000000000000000000000000000000000000000000815260040161060e906153fa565b6fffffffffffffffffffffffffffffffff841660009081526020828152604080832073ffffffffffffffffffffffffffffffffffffffff89168452600a8101909252909120805460ff1615613459576040517f08c379a000000000000000000000000000000000000000000000000000000000815260040161060e9061558a565b600284015460088301546040517f782d6fe100000000000000000000000000000000000000000000000000000000815260009273ffffffffffffffffffffffffffffffffffffffff169163782d6fe1916134b7918c9160040161517b565b60206040518083038186803b1580156134cf57600080fd5b505afa1580156134e3573d6000803e3d6000fd5b505050506040513d601f19601f8201168201806040525081019061350791906142f2565b90506000816bffffffffffffffffffffffff1611613551576040517f08c379a000000000000000000000000000000000000000000000000000000000815260040161060e906153ca565b85156135b8576001830154613574906bffffffffffffffffffffffff168261396f565b6001840180547fffffffffffffffffffffffffffffffffffffffff000000000000000000000000166bffffffffffffffffffffffff92909216919091179055613618565b60018301546135e5906c0100000000000000000000000090046bffffffffffffffffffffffff168261396f565b83600101600c6101000a8154816bffffffffffffffffffffffff02191690836bffffffffffffffffffffffff1602179055505b815460017fffffffffffffffffffffffffffffffffffffffffffffffffffffffffffffff00909116177fffffffffffffffffffffffffffffffffffffffffffffffffffffffffffff00ff1661010087151502177fffffffffffffffffffffffffffffffffffff000000000000000000000000ffff16620100006bffffffffffffffffffffffff8316021782556040516fffffffffffffffffffffffffffffffff88169073ffffffffffffffffffffffffffffffffffffffff8a16907f7fb15dba4e9bcf0025568745d939c347014a2a18e2d2acdc4b5d284a6c73abfe90613702908a90869061535b565b60405180910390a35050505050505050565b6000816c01000000000000000000000000841061375e576040517f08c379a000000000000000000000000000000000000000000000000000000000815260040161060e91906153b9565b509192915050565b60006137c861378d836137876bffffffffffffffffffffffff8816876139bf565b90613a13565b6040518060400160405280601681526020017f416d6f756e742065786365656473203936206269747300000000000000000000815250613714565b949350505050565b600082820183811015613323576040517f08c379a000000000000000000000000000000000000000000000000000000000815260040161060e9061541a565b60008282111561384b576040517f08c379a000000000000000000000000000000000000000000000000000000000815260040161060e9061547a565b50900390565b60008061385c613207565b905060005b83518110156138c8578160030184828151811061387a57fe5b602002602001015160405161388f919061513d565b9081526040519081900360200190205460ff166138c0575060050154640100000000900463ffffffff16905061087b565b600101613861565b5060019392505050565b60007f4abb8ae9facc09d5584ac64f616551bfc03c3ac63e5c431132305bd9bc8f8246602083101561390057fe5b7fffffffffffffffffffffffffffffffffffffffffffffffffffffffffffffffe0929092018051928152606081209290525090565b6040517f19010000000000000000000000000000000000000000000000000000000000008152600281019290925260228201526042902090565b60008282016bffffffffffffffffffffffff8085169082161015613323576040517f08c379a000000000000000000000000000000000000000000000000000000000815260040161060e9061541a565b6000826139ce57506000612257565b828202828482816139db57fe5b0414613323576040517f08c379a000000000000000000000000000000000000000000000000000000000815260040161060e906154ca565b6000808211613a4e576040517f08c379a000000000000000000000000000000000000000000000000000000000815260040161060e9061548a565b818381613a5757fe5b049392505050565b604080516101c08101825260008082526020820181905291810182905260608082018390526080820183905260a0820183905260c0820183905260e0820183905261010082018190526101208201819052610140820181905261016082015261018081018290526101a081019190915290565b604080516060810182526000808252602082018190529181019190915290565b828054828255906000526020600020908101928215613b6c579160200282015b82811115613b6c57825182547fffffffffffffffffffffffff00000000000000000000000000000000000000001673ffffffffffffffffffffffffffffffffffffffff909116178255602090920191600190910190613b12565b50613b78929150613c75565b5090565b828054828255906000526020600020908101928215613bc9579160200282015b82811115613bc95782518051613bb9918491602090910190613cac565b5091602001919060010190613b9c565b50613b78929150613d19565b828054828255906000526020600020908101928215613c22579160200282015b82811115613c225782518051613c12918491602090910190613cac565b5091602001919060010190613bf5565b50613b78929150613d36565b828054828255906000526020600020908101928215613c69579160200282015b82811115613c69578251825591602001919060010190613c4e565b50613b78929150613d53565b5b80821115613b785780547fffffffffffffffffffffffff0000000000000000000000000000000000000000168155600101613c76565b828054600181600116156101000203166002900490600052602060002090601f016020900481019282601f10613ced57805160ff1916838001178555613c69565b82800160010185558215613c695791820182811115613c69578251825591602001919060010190613c4e565b80821115613b78576000613d2d8282613d68565b50600101613d19565b80821115613b78576000613d4a8282613d68565b50600101613d36565b5b80821115613b785760008155600101613d54565b50805460018160011615610100020316600290046000825580601f10613d8e575061326c565b601f01602090049060005260206000209081019061326c9190613d53565b803561225781615847565b600082601f830112613dc857600080fd5b8135613ddb613dd6826156a6565b61567f565b91508181835260208401935060208101905083856020840282011115613e0057600080fd5b60005b83811015613e2c5781613e168882613dac565b8452506020928301929190910190600101613e03565b5050505092915050565b600082601f830112613e4757600080fd5b8135613e55613dd6826156a6565b81815260209384019390925082018360005b83811015613e2c5781358601613e7d8882613f76565b8452506020928301929190910190600101613e67565b600082601f830112613ea457600080fd5b8135613eb2613dd6826156a6565b81815260209384019390925082018360005b83811015613e2c5781358601613eda8882613f76565b8452506020928301929190910190600101613ec4565b600082601f830112613f0157600080fd5b8135613f0f613dd6826156a6565b91508181835260208401935060208101905083856020840282011115613f3457600080fd5b60005b83811015613e2c5781613f4a8882613f6b565b8452506020928301929190910190600101613f37565b80356122578161585b565b803561225781615864565b600082601f830112613f8757600080fd5b8135613f95613dd6826156c7565b91508082526020830160208301858383011115613fb157600080fd5b613fbc8382846157dd565b50505092915050565b80356122578161586d565b805161225781615864565b803561225781615876565b80516122578161587f565b60006020828403121561400357600080fd5b60006137c88484613dac565b600080600080600060a0868803121561402757600080fd5b853567ffffffffffffffff81111561403e57600080fd5b61404a88828901613db7565b955050602086013567ffffffffffffffff81111561406757600080fd5b61407388828901613ef0565b945050604086013567ffffffffffffffff81111561409057600080fd5b61409c88828901613e93565b935050606086013567ffffffffffffffff8111156140b957600080fd5b6140c588828901613e36565b925050608086013567ffffffffffffffff8111156140e257600080fd5b6140ee88828901613f76565b9150509295509295909350565b60006020828403121561410d57600080fd5b60006137c88484613f6b565b60006020828403121561412b57600080fd5b60006137c88484613fc5565b6000806040838503121561414a57600080fd5b60006141568585613fc5565b925050602061416785828601613dac565b9150509250929050565b6000806040838503121561418457600080fd5b60006141908585613fc5565b925050602061416785828601613f60565b6000806000606084860312156141b657600080fd5b60006141c28686613fc5565b93505060206141d386828701613f60565b925050604084013567ffffffffffffffff8111156141f057600080fd5b6141fc86828701613f76565b9150509250925092565b60006020828403121561421857600080fd5b60006137c88484613fd0565b60006020828403121561423657600080fd5b60006137c88484613fdb565b600080600080600080600080610100898b03121561425f57600080fd5b600061426b8b8b613fdb565b985050602061427c8b828c01613fdb565b975050604061428d8b828c01613fdb565b965050606061429e8b828c01613fdb565b95505060806142af8b828c01613fdb565b94505060a06142c08b828c01613fdb565b93505060c06142d18b828c01613fdb565b92505060e06142e28b828c01613fdb565b9150509295985092959890939650565b60006020828403121561430457600080fd5b60006137c88484613fe6565b600061431c838361434b565b505060200190565b600061332383836144ed565b600061431c83836144d3565b614345816157bc565b82525050565b6143458161572c565b600061435f8261571f565b6143698185615723565b93506143748361570d565b8060005b838110156143a257815161438c8882614310565b97506143978361570d565b925050600101614378565b509495945050505050565b60006143b88261571f565b6143c28185615723565b9350836020820285016143d48561570d565b8060005b8581101561440e57848403895281516143f18582614324565b94506143fc8361570d565b60209a909a01999250506001016143d8565b5091979650505050505050565b60006144268261571f565b6144308185615723565b9350836020820285016144428561570d565b8060005b8581101561440e578484038952815161445f8582614324565b945061446a8361570d565b60209a909a0199925050600101614446565b60006144878261571f565b6144918185615723565b935061449c8361570d565b8060005b838110156143a25781516144b48882614330565b97506144bf8361570d565b9250506001016144a0565b61434581615737565b6143458161573c565b6143456144e88261573f565b61573c565b60006144f88261571f565b6145028185615723565b93506145128185602086016157e9565b61451b81615815565b9093019392505050565b60006145308261571f565b61453a818561087b565b935061454a8185602086016157e9565b9290920192915050565b60008154600181166000811461457157600181146145b2576145f1565b607f6002830416614582818761087b565b7fffffffffffffffffffffffffffffffffffffffffffffffffffffffffffffff00841681529550850192506145f1565b600282046145c0818761087b565b95506145cb85615713565b60005b828110156145ea578154888201526001909101906020016145ce565b5050850192505b505092915050565b600081546001811660008114614616576001811461465a576145f1565b607f60028304166146278187615723565b7fffffffffffffffffffffffffffffffffffffffffffffffffffffffffffffff00841681529550506020850192506145f1565b600282046146688187615723565b955061467385615713565b60005b8281101561469257815488820152600190910190602001614676565b9096019695505050505050565b614345816157c7565b60006146b5602683615723565b7f476f7665726e616e63653a20766f74657220686173206e6f20766f74696e672081527f706f7765722e0000000000000000000000000000000000000000000000000000602082015260400192915050565b6000614714602b83615723565b7f476f7665726e616e63653a207472616e73616374696f6e206861736e2774206281527f65656e207175657565642e000000000000000000000000000000000000000000602082015260400192915050565b6000614773601e83615723565b7f476f7665726e616e63653a20696e76616c6964207369676e61747572652e0000815260200192915050565b60006147ac601d83615723565b7f476f7665726e616e63653a20766f74696e6720697320636c6f7365642e000000815260200192915050565b60006147e5603b83615723565b7f476f7665726e616e63653a2070726f706f73616c2063616e206f6e6c7920626581527f20717565756564206966206974206973207375636365656465642e0000000000602082015260400192915050565b600061484460118361087b565b7f736574497350617573656428626f6f6c29000000000000000000000000000000815260110192915050565b600061487d601b83615723565b7f536166654d6174683a206164646974696f6e206f766572666c6f770000000000815260200192915050565b60006148b6602f83615723565b7f476f7665726e616e63653a206d7573742062652063616c6c656420627920476f81527f7665726e616e63652061646d696e2e0000000000000000000000000000000000602082015260400192915050565b6000614915602683615723565b7f475245415445525f4f525f455155414c5f544f5f33325f4c454e4754485f524581527f5155495245440000000000000000000000000000000000000000000000000000602082015260400192915050565b6000614974604e83615723565b7f476f7665726e616e63653a206f6e65206c6976652070726f706f73616c20706581527f722070726f706f7365722c20666f756e6420616e20616c72656164792070656e60208201527f64696e672070726f706f73616c2e000000000000000000000000000000000000604082015260600192915050565b60006149f9604d83615723565b7f476f7665726e616e63653a206f6e65206c6976652070726f706f73616c20706581527f722070726f706f7365722c20666f756e6420616e20616c72656164792061637460208201527f6976652070726f706f73616c2e00000000000000000000000000000000000000604082015260600192915050565b6000614a7e602183615723565b7f476f7665726e616e63653a206d7573742070726f7669646520616374696f6e7381527f2e00000000000000000000000000000000000000000000000000000000000000602082015260400192915050565b6000614add601e83615723565b7f536166654d6174683a207375627472616374696f6e206f766572666c6f770000815260200192915050565b6000614b16601a83615723565b7f536166654d6174683a206469766973696f6e206279207a65726f000000000000815260200192915050565b6000614b4f602183615723565b7f476f7665726e616e63653a207472616e73616374696f6e206973207374616c6581527f2e00000000000000000000000000000000000000000000000000000000000000602082015260400192915050565b6000614bae603a83615723565b7f476f7665726e616e63653a2070726f706f73616c2063616e206f6e6c7920626581527f206578656375746564206966206974206973207175657565642e000000000000602082015260400192915050565b6000614c0d603283615723565b7f476f7665726e616e63653a2070726f706f73616c20616374696f6e20616c726581527f61647920717565756564206174206574612e0000000000000000000000000000602082015260400192915050565b6000614c6c602183615723565b7f536166654d6174683a206d756c7469706c69636174696f6e206f766572666c6f81527f7700000000000000000000000000000000000000000000000000000000000000602082015260400192915050565b6000614ccb602783615723565b7f476f7665726e616e63653a20496e76616c69642066756e6374696f6e2073696781527f6e61747572652e00000000000000000000000000000000000000000000000000602082015260400192915050565b6000614d2a603783615723565b7f476f7665726e616e63653a2070726f706f73616c206861736e27742066696e6981527f736865642071756575652074696d65206c656e6774682e000000000000000000602082015260400192915050565b6000614d89603a83615723565b7f476f7665726e616e63653a2070726f706f73616c2066756e6374696f6e20696e81527f666f726d6174696f6e20706172697479206d69736d617463682e000000000000602082015260400192915050565b6000614de8602c83615723565b7f476f7665726e616e63653a2063616e6e6f742063616e63656c2065786563757481527f65642070726f706f73616c2e0000000000000000000000000000000000000000602082015260400192915050565b6000614e47603483615723565b7f476f7665726e616e63653a2070726f706f73657220766f7465732062656c6f7781527f2070726f706f73616c207468726573686f6c642e000000000000000000000000602082015260400192915050565b6000614ea6602583615723565b7f476f7665726e616e63653a2070726f706f7365722061626f766520746872657381527f686f6c642e000000000000000000000000000000000000000000000000000000602082015260400192915050565b6000614f05602b83615723565b7f476f7665726e616e63653a207472616e73616374696f6e20657865637574696f81527f6e2072657665727465642e000000000000000000000000000000000000000000602082015260400192915050565b6000614f64601d83615723565b7f476f7665726e616e63653a20746f6f206d616e7920616374696f6e732e000000815260200192915050565b6000614f9d603583615723565b7f476f7665726e616e63653a20736b69702072656d20766f746573206d7573742081527f626520686967686572207468616e2035307063742e0000000000000000000000602082015260400192915050565b6000614ffc602083615723565b7f476f7665726e616e63653a20696e76616c69642070726f706f73616c2069642e815260200192915050565b6000615035603683615723565b7f476f7665726e616e63653a20736b69702072656d20766f746573206d7573742081527f626520686967686572207468616e2071756f72756d2e00000000000000000000602082015260400192915050565b6000615094602083615723565b7f476f7665726e616e63653a20766f74657220616c726561647920766f7465642e815260200192915050565b805160608301906150d184826144ca565b5060208201516150e460208501826144ca565b5060408201516150f76040850182615118565b50505050565b6143458161576e565b6143458161579c565b614345816157a5565b614345816157ab565b600061512d82856144dc565b6004820191506137c88284614554565b60006133238284614525565b60006133238284614554565b600061225782614837565b6040810161516e828561433c565b61332360208301846144d3565b6040810161516e828561434b565b60a08101615197828861434b565b6151a460208301876144d3565b81810360408301526151b681866145f9565b905081810360608301526151ca81856145f9565b90506151d960808301846144d3565b9695505050505050565b608080825281016151f48187614354565b90508181036020830152615208818661447c565b9050818103604083015261521c818561441b565b905081810360608301526151d981846143ad565b60e08082528101615241818a614354565b90508181036020830152615255818961447c565b90508181036040830152615269818861441b565b9050818103606083015261527d81876143ad565b905061528c60808301866144d3565b61529960a08301856144d3565b81810360c08301526152ab81846144ed565b9998505050505050505050565b6020810161225782846144ca565b61014081016152d5828d6144ca565b6152e2602083018c6144ca565b6152ef604083018b61434b565b6152fc606083018a615106565b6153096080830189615118565b61531660a0830188615118565b61532360c08301876150fd565b61533060e08301866144d3565b61533e6101008301856144d3565b61534c6101208301846144d3565b9b9a5050505050505050505050565b6040810161536982856144ca565b6133236020830184615118565b6080810161538482876144d3565b615391602083018661510f565b61539e60408301856144d3565b61307560608301846144d3565b60208101612257828461469f565b6020808252810161332381846144ed565b60208082528101612257816146a8565b6020808252810161225781614707565b6020808252810161225781614766565b602080825281016122578161479f565b60208082528101612257816147d8565b6020808252810161225781614870565b60208082528101612257816148a9565b6020808252810161225781614908565b6020808252810161225781614967565b60208082528101612257816149ec565b6020808252810161225781614a71565b6020808252810161225781614ad0565b6020808252810161225781614b09565b6020808252810161225781614b42565b6020808252810161225781614ba1565b6020808252810161225781614c00565b6020808252810161225781614c5f565b6020808252810161225781614cbe565b6020808252810161225781614d1d565b6020808252810161225781614d7c565b6020808252810161225781614ddb565b6020808252810161225781614e3a565b6020808252810161225781614e99565b6020808252810161225781614ef8565b6020808252810161225781614f57565b6020808252810161225781614f90565b6020808252810161225781614fef565b6020808252810161225781615028565b6020808252810161225781615087565b6060810161225782846150c0565b6020810161225782846150fd565b6020810161225782846144d3565b608081016155d282876144d3565b81810360208301526155e481866145f9565b905081810360408301526155f881856145f9565b905061307560608301846144d3565b6101008101615616828b615106565b615623602083018a615106565b6156306040830189615106565b61563d6060830188615106565b61564a6080830187615106565b61565760a0830186615106565b61566460c0830185615106565b6152ab60e0830184615106565b602081016122578284615118565b60405181810167ffffffffffffffff8111828210171561569e57600080fd5b604052919050565b600067ffffffffffffffff8211156156bd57600080fd5b5060209081020190565b600067ffffffffffffffff8211156156de57600080fd5b506020601f919091017fffffffffffffffffffffffffffffffffffffffffffffffffffffffffffffffe0160190565b60200190565b60009081526020902090565b5190565b90815260200190565b600061225782615783565b151590565b90565b7fffffffff000000000000000000000000000000000000000000000000000000001690565b8061087b8161583d565b6fffffffffffffffffffffffffffffffff1690565b73ffffffffffffffffffffffffffffffffffffffff1690565b63ffffffff1690565b60ff1690565b6bffffffffffffffffffffffff1690565b6000612257826157d2565b600061225782615764565b60006122578261572c565b82818337506000910152565b60005b838110156158045781810151838201526020016157ec565b838111156150f75750506000910152565b601f017fffffffffffffffffffffffffffffffffffffffffffffffffffffffffffffffe01690565b6008811061326c57fe5b6158508161572c565b811461326c57600080fd5b61585081615737565b6158508161573c565b6158508161576e565b6158508161579c565b615850816157ab56fe476f7665726e616e63653a20616d6f756e7420657863656564732039362062697473a26469706673582212204fd30856475aaa1dc1b3e4bce15bf66463b8a2450271c342a64e92e4fb58da8e64736f6c634300060c0033",
  "linkReferences": {},
  "deployedLinkReferences": {}
}