{
  "_format": "hh-sol-artifact-1",
  "contractName": "SafeERC20Wrapper",
  "sourceName": "contracts/tokens/SafeERC20Wrapper.sol",
  "abi": [
    {
      "inputs": [
        {
          "internalType": "contract IERC20",
          "name": "token",
          "type": "address"
        }
      ],
      "stateMutability": "nonpayable",
      "type": "constructor"
    },
    {
      "inputs": [
        {
          "internalType": "address",
          "name": "owner",
          "type": "address"
        },
        {
          "internalType": "address",
          "name": "spender",
          "type": "address"
        }
      ],
      "name": "allowance",
      "outputs": [
        {
          "internalType": "uint256",
          "name": "",
          "type": "uint256"
        }
      ],
      "stateMutability": "view",
      "type": "function"
    },
    {
      "inputs": [
        {
          "internalType": "address",
          "name": "spender",
          "type": "address"
        },
        {
          "internalType": "uint256",
          "name": "amount",
          "type": "uint256"
        }
      ],
      "name": "approve",
      "outputs": [],
      "stateMutability": "nonpayable",
      "type": "function"
    },
    {
      "inputs": [
        {
          "internalType": "address",
          "name": "account",
          "type": "address"
        }
      ],
      "name": "balanceOf",
      "outputs": [
        {
          "internalType": "uint256",
          "name": "",
          "type": "uint256"
        }
      ],
      "stateMutability": "view",
      "type": "function"
    },
    {
      "inputs": [
        {
          "internalType": "address",
          "name": "spender",
          "type": "address"
        },
        {
          "internalType": "uint256",
          "name": "amount",
          "type": "uint256"
        }
      ],
      "name": "decreaseAllowance",
      "outputs": [],
      "stateMutability": "nonpayable",
      "type": "function"
    },
    {
      "inputs": [
        {
          "internalType": "address",
          "name": "spender",
          "type": "address"
        },
        {
          "internalType": "uint256",
          "name": "amount",
          "type": "uint256"
        }
      ],
      "name": "increaseAllowance",
      "outputs": [],
      "stateMutability": "nonpayable",
      "type": "function"
    },
    {
      "inputs": [
        {
          "internalType": "address",
          "name": "recipient",
          "type": "address"
        },
        {
          "internalType": "uint256",
          "name": "amount",
          "type": "uint256"
        }
      ],
      "name": "transfer",
      "outputs": [],
      "stateMutability": "nonpayable",
      "type": "function"
    },
    {
      "inputs": [
        {
          "internalType": "address",
          "name": "sender",
          "type": "address"
        },
        {
          "internalType": "address",
          "name": "recipient",
          "type": "address"
        },
        {
          "internalType": "uint256",
          "name": "amount",
          "type": "uint256"
        }
      ],
      "name": "transferFrom",
      "outputs": [],
      "stateMutability": "nonpayable",
      "type": "function"
    }
  ],
  "bytecode": "0x608060405234801561001057600080fd5b50604051610f5c380380610f5c83398101604081905261002f91610065565b600080546001600160a01b0319166001600160a01b03929092169190911790556100c4565b805161005f816100ad565b92915050565b60006020828403121561007757600080fd5b60006100838484610054565b949350505050565b600061005f826100a1565b600061005f8261008b565b6001600160a01b031690565b6100b681610096565b81146100c157600080fd5b50565b610e89806100d36000396000f3fe608060405234801561001057600080fd5b506004361061007d5760003560e01c806370a082311161005b57806370a08231146100bd578063a457c2d7146100e6578063a9059cbb146100f9578063dd62ed3e1461010c5761007d565b8063095ea7b31461008257806323b872dd1461009757806339509351146100aa575b600080fd5b610095610090366004610a0e565b61011f565b005b6100956100a53660046109c1565b610147565b6100956100b8366004610a0e565b610171565b6100d06100cb366004610969565b610195565b6040516100dd9190610d61565b60405180910390f35b6100956100f4366004610a0e565b610242565b610095610107366004610a0e565b610266565b6100d061011a366004610987565b61028a565b6000546101439073ffffffffffffffffffffffffffffffffffffffff16838361033a565b5050565b60005461016c9073ffffffffffffffffffffffffffffffffffffffff168484846104c8565b505050565b6000546101439073ffffffffffffffffffffffffffffffffffffffff1683836104ef565b600080546040517f70a0823100000000000000000000000000000000000000000000000000000000815273ffffffffffffffffffffffffffffffffffffffff909116906370a08231906101ec908590600401610c94565b60206040518083038186803b15801561020457600080fd5b505afa158015610218573d6000803e3d6000fd5b505050506040513d601f19601f8201168201806040525081019061023c9190610a5c565b92915050565b6000546101439073ffffffffffffffffffffffffffffffffffffffff1683836105a7565b6000546101439073ffffffffffffffffffffffffffffffffffffffff168383610671565b600080546040517fdd62ed3e00000000000000000000000000000000000000000000000000000000815273ffffffffffffffffffffffffffffffffffffffff9091169063dd62ed3e906102e39086908690600401610ca2565b60206040518083038186803b1580156102fb57600080fd5b505afa15801561030f573d6000803e3d6000fd5b505050506040513d601f19601f820116820180604052508101906103339190610a5c565b9392505050565b8015806103e857506040517fdd62ed3e00000000000000000000000000000000000000000000000000000000815273ffffffffffffffffffffffffffffffffffffffff84169063dd62ed3e906103969030908690600401610ca2565b60206040518083038186803b1580156103ae57600080fd5b505afa1580156103c2573d6000803e3d6000fd5b505050506040513d601f19601f820116820180604052508101906103e69190610a5c565b155b610427576040517f08c379a000000000000000000000000000000000000000000000000000000000815260040161041e90610d51565b60405180910390fd5b61016c8363095ea7b360e01b8484604051602401610446929190610ce5565b604080517fffffffffffffffffffffffffffffffffffffffffffffffffffffffffffffffe08184030181529190526020810180517bffffffffffffffffffffffffffffffffffffffffffffffffffffffff167fffffffff0000000000000000000000000000000000000000000000000000000090931692909217909152610690565b6104e9846323b872dd60e01b85858560405160240161044693929190610cbd565b50505050565b6000610586828573ffffffffffffffffffffffffffffffffffffffff1663dd62ed3e30876040518363ffffffff1660e01b8152600401610530929190610ca2565b60206040518083038186803b15801561054857600080fd5b505afa15801561055c573d6000803e3d6000fd5b505050506040513d601f19601f820116820180604052508101906105809190610a5c565b90610746565b90506104e98463095ea7b360e01b8584604051602401610446929190610ce5565b600061058682604051806060016040528060298152602001610e2b602991396040517fdd62ed3e00000000000000000000000000000000000000000000000000000000815273ffffffffffffffffffffffffffffffffffffffff88169063dd62ed3e9061061a9030908a90600401610ca2565b60206040518083038186803b15801561063257600080fd5b505afa158015610646573d6000803e3d6000fd5b505050506040513d601f19601f8201168201806040525081019061066a9190610a5c565b9190610785565b61016c8363a9059cbb60e01b8484604051602401610446929190610ce5565b60606106f2826040518060400160405280602081526020017f5361666545524332303a206c6f772d6c6576656c2063616c6c206661696c65648152508573ffffffffffffffffffffffffffffffffffffffff166107cb9092919063ffffffff16565b80519091501561016c57808060200190518101906107109190610a3e565b61016c576040517f08c379a000000000000000000000000000000000000000000000000000000000815260040161041e90610d41565b600082820183811015610333576040517f08c379a000000000000000000000000000000000000000000000000000000000815260040161041e90610d11565b600081848411156107c3576040517f08c379a000000000000000000000000000000000000000000000000000000000815260040161041e9190610d00565b505050900390565b60606107da84846000856107e2565b949350505050565b60608247101561081e576040517f08c379a000000000000000000000000000000000000000000000000000000000815260040161041e90610d21565b610827856108e4565b61085d576040517f08c379a000000000000000000000000000000000000000000000000000000000815260040161041e90610d31565b600060608673ffffffffffffffffffffffffffffffffffffffff1685876040516108879190610c88565b60006040518083038185875af1925050503d80600081146108c4576040519150601f19603f3d011682016040523d82523d6000602084013e6108c9565b606091505b50915091506108d98282866108ea565b979650505050505050565b3b151590565b606083156108f9575081610333565b8251156109095782518084602001fd5b816040517f08c379a000000000000000000000000000000000000000000000000000000000815260040161041e9190610d00565b803561023c81610e01565b805161023c81610e18565b803561023c81610e21565b805161023c81610e21565b60006020828403121561097b57600080fd5b60006107da848461093d565b6000806040838503121561099a57600080fd5b60006109a6858561093d565b92505060206109b78582860161093d565b9150509250929050565b6000806000606084860312156109d657600080fd5b60006109e2868661093d565b93505060206109f38682870161093d565b9250506040610a0486828701610953565b9150509250925092565b60008060408385031215610a2157600080fd5b6000610a2d858561093d565b92505060206109b785828601610953565b600060208284031215610a5057600080fd5b60006107da8484610948565b600060208284031215610a6e57600080fd5b60006107da848461095e565b610a8381610d81565b82525050565b6000610a9482610d6f565b610a9e8185610d73565b9350610aae818560208601610dad565b9290920192915050565b6000610ac382610d6f565b610acd8185610d78565b9350610add818560208601610dad565b610ae681610dd9565b9093019392505050565b6000610afd601b83610d78565b7f536166654d6174683a206164646974696f6e206f766572666c6f770000000000815260200192915050565b6000610b36602683610d78565b7f416464726573733a20696e73756666696369656e742062616c616e636520666f81527f722063616c6c0000000000000000000000000000000000000000000000000000602082015260400192915050565b6000610b95601d83610d78565b7f416464726573733a2063616c6c20746f206e6f6e2d636f6e7472616374000000815260200192915050565b6000610bce602a83610d78565b7f5361666545524332303a204552433230206f7065726174696f6e20646964206e81527f6f74207375636365656400000000000000000000000000000000000000000000602082015260400192915050565b6000610c2d603683610d78565b7f5361666545524332303a20617070726f76652066726f6d206e6f6e2d7a65726f81527f20746f206e6f6e2d7a65726f20616c6c6f77616e636500000000000000000000602082015260400192915050565b610a8381610daa565b60006103338284610a89565b6020810161023c8284610a7a565b60408101610cb08285610a7a565b6103336020830184610a7a565b60608101610ccb8286610a7a565b610cd86020830185610a7a565b6107da6040830184610c7f565b60408101610cf38285610a7a565b6103336020830184610c7f565b602080825281016103338184610ab8565b6020808252810161023c81610af0565b6020808252810161023c81610b29565b6020808252810161023c81610b88565b6020808252810161023c81610bc1565b6020808252810161023c81610c20565b6020810161023c8284610c7f565b5190565b919050565b90815260200190565b600061023c82610d91565b151590565b73ffffffffffffffffffffffffffffffffffffffff1690565b90565b60005b83811015610dc8578181015183820152602001610db0565b838111156104e95750506000910152565b601f017fffffffffffffffffffffffffffffffffffffffffffffffffffffffffffffffe01690565b610e0a81610d81565b8114610e1557600080fd5b50565b610e0a81610d8c565b610e0a81610daa56fe5361666545524332303a2064656372656173656420616c6c6f77616e63652062656c6f77207a65726fa2646970667358221220040fdf4ed224bef63a5acd5d6aaf58ec31a7c7a94b686475986752e71fbdd7e864736f6c634300060c0033",
  "linkReferences": {},
  "deployedLinkReferences": {}
}