{
  "_format": "hh-sol-artifact-1",
  "contractName": "Blacklist",
  "sourceName": "contracts/tokens/HDUMToken.sol",
  "abi": [
    {
      "anonymous": false,
      "inputs": [
        {
          "indexed": true,
          "internalType": "address",
          "name": "owner",
          "type": "address"
        },
        {
          "indexed": true,
          "internalType": "address",
          "name": "spender",
          "type": "address"
        },
        {
          "indexed": false,
          "internalType": "uint256",
          "name": "value",
          "type": "uint256"
        }
      ],
      "name": "Approval",
      "type": "event"
    },
    {
      "anonymous": false,
      "inputs": [
        {
          "indexed": true,
          "internalType": "address",
          "name": "account",
          "type": "address"
        }
      ],
      "name": "BlacklistAdded",
      "type": "event"
    },
    {
      "anonymous": false,
      "inputs": [
        {
          "indexed": true,
          "internalType": "address",
          "name": "account",
          "type": "address"
        }
      ],
      "name": "BlacklistAdminAdded",
      "type": "event"
    },
    {
      "anonymous": false,
      "inputs": [
        {
          "indexed": true,
          "internalType": "address",
          "name": "account",
          "type": "address"
        }
      ],
      "name": "BlacklistAdminRemoved",
      "type": "event"
    },
    {
      "anonymous": false,
      "inputs": [
        {
          "indexed": true,
          "internalType": "address",
          "name": "account",
          "type": "address"
        }
      ],
      "name": "BlacklistRemoved",
      "type": "event"
    },
    {
      "anonymous": false,
      "inputs": [
        {
          "indexed": true,
          "internalType": "address",
          "name": "account",
          "type": "address"
        },
        {
          "indexed": false,
          "internalType": "uint256",
          "name": "amount",
          "type": "uint256"
        }
      ],
      "name": "Issue",
      "type": "event"
    },
    {
      "anonymous": false,
      "inputs": [
        {
          "indexed": true,
          "internalType": "address",
          "name": "previousOwner",
          "type": "address"
        },
        {
          "indexed": true,
          "internalType": "address",
          "name": "newOwner",
          "type": "address"
        }
      ],
      "name": "OwnershipTransferred",
      "type": "event"
    },
    {
      "anonymous": false,
      "inputs": [
        {
          "indexed": true,
          "internalType": "address",
          "name": "account",
          "type": "address"
        },
        {
          "indexed": false,
          "internalType": "uint256",
          "name": "value",
          "type": "uint256"
        }
      ],
      "name": "Redeem",
      "type": "event"
    },
    {
      "anonymous": false,
      "inputs": [
        {
          "indexed": true,
          "internalType": "address",
          "name": "from",
          "type": "address"
        },
        {
          "indexed": true,
          "internalType": "address",
          "name": "to",
          "type": "address"
        },
        {
          "indexed": false,
          "internalType": "uint256",
          "name": "value",
          "type": "uint256"
        }
      ],
      "name": "Transfer",
      "type": "event"
    },
    {
      "inputs": [
        {
          "internalType": "address[]",
          "name": "accounts",
          "type": "address[]"
        }
      ],
      "name": "addBlacklist",
      "outputs": [
        {
          "internalType": "bool",
          "name": "",
          "type": "bool"
        }
      ],
      "stateMutability": "nonpayable",
      "type": "function"
    },
    {
      "inputs": [
        {
          "internalType": "address",
          "name": "account",
          "type": "address"
        }
      ],
      "name": "addBlacklistAdmin",
      "outputs": [],
      "stateMutability": "nonpayable",
      "type": "function"
    },
    {
      "inputs": [
        {
          "internalType": "address",
          "name": "owner",
          "type": "address"
        },
        {
          "internalType": "address",
          "name": "spender",
          "type": "address"
        }
      ],
      "name": "allowance",
      "outputs": [
        {
          "internalType": "uint256",
          "name": "",
          "type": "uint256"
        }
      ],
      "stateMutability": "view",
      "type": "function"
    },
    {
      "inputs": [
        {
          "internalType": "address",
          "name": "spender",
          "type": "address"
        },
        {
          "internalType": "uint256",
          "name": "value",
          "type": "uint256"
        }
      ],
      "name": "approve",
      "outputs": [
        {
          "internalType": "bool",
          "name": "",
          "type": "bool"
        }
      ],
      "stateMutability": "nonpayable",
      "type": "function"
    },
    {
      "inputs": [
        {
          "internalType": "address",
          "name": "account",
          "type": "address"
        }
      ],
      "name": "balanceOf",
      "outputs": [
        {
          "internalType": "uint256",
          "name": "",
          "type": "uint256"
        }
      ],
      "stateMutability": "view",
      "type": "function"
    },
    {
      "inputs": [
        {
          "internalType": "address",
          "name": "spender",
          "type": "address"
        },
        {
          "internalType": "uint256",
          "name": "subtractedValue",
          "type": "uint256"
        }
      ],
      "name": "decreaseAllowance",
      "outputs": [
        {
          "internalType": "bool",
          "name": "",
          "type": "bool"
        }
      ],
      "stateMutability": "nonpayable",
      "type": "function"
    },
    {
      "inputs": [
        {
          "internalType": "address",
          "name": "spender",
          "type": "address"
        },
        {
          "internalType": "uint256",
          "name": "addedValue",
          "type": "uint256"
        }
      ],
      "name": "increaseAllowance",
      "outputs": [
        {
          "internalType": "bool",
          "name": "",
          "type": "bool"
        }
      ],
      "stateMutability": "nonpayable",
      "type": "function"
    },
    {
      "inputs": [
        {
          "internalType": "address",
          "name": "account",
          "type": "address"
        }
      ],
      "name": "isBlacklist",
      "outputs": [
        {
          "internalType": "bool",
          "name": "",
          "type": "bool"
        }
      ],
      "stateMutability": "view",
      "type": "function"
    },
    {
      "inputs": [
        {
          "internalType": "address",
          "name": "account",
          "type": "address"
        }
      ],
      "name": "isBlacklistAdmin",
      "outputs": [
        {
          "internalType": "bool",
          "name": "",
          "type": "bool"
        }
      ],
      "stateMutability": "view",
      "type": "function"
    },
    {
      "inputs": [],
      "name": "owner",
      "outputs": [
        {
          "internalType": "address",
          "name": "",
          "type": "address"
        }
      ],
      "stateMutability": "view",
      "type": "function"
    },
    {
      "inputs": [
        {
          "internalType": "address[]",
          "name": "accounts",
          "type": "address[]"
        }
      ],
      "name": "removeBlacklist",
      "outputs": [
        {
          "internalType": "bool",
          "name": "",
          "type": "bool"
        }
      ],
      "stateMutability": "nonpayable",
      "type": "function"
    },
    {
      "inputs": [
        {
          "internalType": "address",
          "name": "account",
          "type": "address"
        }
      ],
      "name": "removeBlacklistAdmin",
      "outputs": [],
      "stateMutability": "nonpayable",
      "type": "function"
    },
    {
      "inputs": [],
      "name": "renounceBlacklistAdmin",
      "outputs": [],
      "stateMutability": "nonpayable",
      "type": "function"
    },
    {
      "inputs": [],
      "name": "renounceOwnership",
      "outputs": [],
      "stateMutability": "nonpayable",
      "type": "function"
    },
    {
      "inputs": [],
      "name": "totalSupply",
      "outputs": [
        {
          "internalType": "uint256",
          "name": "",
          "type": "uint256"
        }
      ],
      "stateMutability": "view",
      "type": "function"
    },
    {
      "inputs": [
        {
          "internalType": "address",
          "name": "recipient",
          "type": "address"
        },
        {
          "internalType": "uint256",
          "name": "amount",
          "type": "uint256"
        }
      ],
      "name": "transfer",
      "outputs": [
        {
          "internalType": "bool",
          "name": "",
          "type": "bool"
        }
      ],
      "stateMutability": "nonpayable",
      "type": "function"
    },
    {
      "inputs": [
        {
          "internalType": "address",
          "name": "sender",
          "type": "address"
        },
        {
          "internalType": "address",
          "name": "recipient",
          "type": "address"
        },
        {
          "internalType": "uint256",
          "name": "amount",
          "type": "uint256"
        }
      ],
      "name": "transferFrom",
      "outputs": [
        {
          "internalType": "bool",
          "name": "",
          "type": "bool"
        }
      ],
      "stateMutability": "nonpayable",
      "type": "function"
    },
    {
      "inputs": [
        {
          "internalType": "address",
          "name": "newOwner",
          "type": "address"
        }
      ],
      "name": "transferOwnership",
      "outputs": [],
      "stateMutability": "nonpayable",
      "type": "function"
    }
  ],
  "bytecode": "0x60806040523480156200001157600080fd5b5060006200001e62000079565b600080546001600160a01b0319166001600160a01b0383169081178255604051929350917f8be0079c531659141344cd1fd0a4f28419497f9722a3daafe3b4186f6b6457e0908290a35062000073336200007d565b620001bc565b3390565b62000098816004620000cf60201b62000c9b1790919060201c565b6040516001600160a01b038216907fa6124c7f565d239231ddc9de42e684db7443c994c658117542be9c50f561943890600090a250565b620000db828262000153565b156200012e576040805162461bcd60e51b815260206004820152601f60248201527f526f6c65733a206163636f756e7420616c72656164792068617320726f6c6500604482015290519081900360640190fd5b6001600160a01b0316600090815260209190915260409020805460ff19166001179055565b60006001600160a01b0382166200019c5760405162461bcd60e51b8152600401808060200182810382526022815260200180620017546022913960400191505060405180910390fd5b506001600160a01b03166000908152602091909152604090205460ff1690565b61158880620001cc6000396000f3fe608060405234801561001057600080fd5b50600436106101365760003560e01c806370a08231116100b2578063a457c2d711610081578063d3ce790511610066578063d3ce7905146104e5578063dd62ed3e14610518578063f2fde38b1461055357610136565b8063a457c2d714610473578063a9059cbb146104ac57610136565b806370a0823114610364578063715018a6146103975780637911ef9d1461039f5780638da5cb5b1461044257610136565b8063243f24731161010957806339509351116100ee57806339509351146102555780633d2cc56c1461028e5780635e612bab1461033157610136565b8063243f247314610218578063333e99db1461022257610136565b8063095ea7b31461013b57806316d2e6501461018857806318160ddd146101bb57806323b872dd146101d5575b600080fd5b6101746004803603604081101561015157600080fd5b5073ffffffffffffffffffffffffffffffffffffffff8135169060200135610586565b604080519115158252519081900360200190f35b6101746004803603602081101561019e57600080fd5b503573ffffffffffffffffffffffffffffffffffffffff1661059c565b6101c36105af565b60408051918252519081900360200190f35b610174600480360360608110156101eb57600080fd5b5073ffffffffffffffffffffffffffffffffffffffff8135811691602081013590911690604001356105b5565b610220610613565b005b6101746004803603602081101561023857600080fd5b503573ffffffffffffffffffffffffffffffffffffffff1661061e565b6101746004803603604081101561026b57600080fd5b5073ffffffffffffffffffffffffffffffffffffffff8135169060200135610649565b610174600480360360208110156102a457600080fd5b8101906020810181356401000000008111156102bf57600080fd5b8201836020820111156102d157600080fd5b803590602001918460208302840111640100000000831117156102f357600080fd5b91908080602002602001604051908101604052809392919081815260200183836020028082843760009201919091525092955061068c945050505050565b6102206004803603602081101561034757600080fd5b503573ffffffffffffffffffffffffffffffffffffffff16610722565b6101c36004803603602081101561037a57600080fd5b503573ffffffffffffffffffffffffffffffffffffffff166107d6565b6102206107fe565b610174600480360360208110156103b557600080fd5b8101906020810181356401000000008111156103d057600080fd5b8201836020820111156103e257600080fd5b8035906020019184602083028401116401000000008311171561040457600080fd5b919080806020026020016040519081016040528093929190818152602001838360200280828437600092019190915250929550610915945050505050565b61044a6109a5565b6040805173ffffffffffffffffffffffffffffffffffffffff9092168252519081900360200190f35b6101746004803603604081101561048957600080fd5b5073ffffffffffffffffffffffffffffffffffffffff81351690602001356109c1565b610174600480360360408110156104c257600080fd5b5073ffffffffffffffffffffffffffffffffffffffff8135169060200135610a04565b610220600480360360208110156104fb57600080fd5b503573ffffffffffffffffffffffffffffffffffffffff16610a11565b6101c36004803603604081101561052e57600080fd5b5073ffffffffffffffffffffffffffffffffffffffff81358116916020013516610ac2565b6102206004803603602081101561056957600080fd5b503573ffffffffffffffffffffffffffffffffffffffff16610afa565b6000610593338484610d61565b50600192915050565b60006105a9600483610ea8565b92915050565b60035490565b60006105c2848484610f43565b73ffffffffffffffffffffffffffffffffffffffff841660009081526002602090815260408083203380855292529091205461060991869161060490866110f0565b610d61565b5060019392505050565b61061c33611167565b565b73ffffffffffffffffffffffffffffffffffffffff1660009081526005602052604090205460ff1690565b33600081815260026020908152604080832073ffffffffffffffffffffffffffffffffffffffff87168452909152812054909161059391859061060490866111b6565b60006106973361059c565b6106ec576040517f08c379a00000000000000000000000000000000000000000000000000000000081526004018080602001828103825260408152602001806114876040913960400191505060405180910390fd5b60005b825181101561071c5761071483828151811061070757fe5b6020026020010151611231565b6001016106ef565b50919050565b61072a6112a8565b73ffffffffffffffffffffffffffffffffffffffff166107486109a5565b73ffffffffffffffffffffffffffffffffffffffff16146107ca57604080517f08c379a000000000000000000000000000000000000000000000000000000000815260206004820181905260248201527f4f776e61626c653a2063616c6c6572206973206e6f7420746865206f776e6572604482015290519081900360640190fd5b6107d381611167565b50565b73ffffffffffffffffffffffffffffffffffffffff1660009081526001602052604090205490565b6108066112a8565b73ffffffffffffffffffffffffffffffffffffffff166108246109a5565b73ffffffffffffffffffffffffffffffffffffffff16146108a657604080517f08c379a000000000000000000000000000000000000000000000000000000000815260206004820181905260248201527f4f776e61626c653a2063616c6c6572206973206e6f7420746865206f776e6572604482015290519081900360640190fd5b6000805460405173ffffffffffffffffffffffffffffffffffffffff909116907f8be0079c531659141344cd1fd0a4f28419497f9722a3daafe3b4186f6b6457e0908390a3600080547fffffffffffffffffffffffff0000000000000000000000000000000000000000169055565b60006109203361059c565b610975576040517f08c379a00000000000000000000000000000000000000000000000000000000081526004018080602001828103825260408152602001806114876040913960400191505060405180910390fd5b60005b825181101561071c5761099d83828151811061099057fe5b60200260200101516112ac565b600101610978565b60005473ffffffffffffffffffffffffffffffffffffffff1690565b33600081815260026020908152604080832073ffffffffffffffffffffffffffffffffffffffff87168452909152812054909161059391859061060490866110f0565b6000610593338484610f43565b610a196112a8565b73ffffffffffffffffffffffffffffffffffffffff16610a376109a5565b73ffffffffffffffffffffffffffffffffffffffff1614610ab957604080517f08c379a000000000000000000000000000000000000000000000000000000000815260206004820181905260248201527f4f776e61626c653a2063616c6c6572206973206e6f7420746865206f776e6572604482015290519081900360640190fd5b6107d381611320565b73ffffffffffffffffffffffffffffffffffffffff918216600090815260026020908152604080832093909416825291909152205490565b610b026112a8565b73ffffffffffffffffffffffffffffffffffffffff16610b206109a5565b73ffffffffffffffffffffffffffffffffffffffff1614610ba257604080517f08c379a000000000000000000000000000000000000000000000000000000000815260206004820181905260248201527f4f776e61626c653a2063616c6c6572206973206e6f7420746865206f776e6572604482015290519081900360640190fd5b73ffffffffffffffffffffffffffffffffffffffff8116610c0e576040517f08c379a000000000000000000000000000000000000000000000000000000000815260040180806020018281038252602681526020018061143f6026913960400191505060405180910390fd5b6000805460405173ffffffffffffffffffffffffffffffffffffffff808516939216917f8be0079c531659141344cd1fd0a4f28419497f9722a3daafe3b4186f6b6457e091a3600080547fffffffffffffffffffffffff00000000000000000000000000000000000000001673ffffffffffffffffffffffffffffffffffffffff92909216919091179055565b610ca58282610ea8565b15610d1157604080517f08c379a000000000000000000000000000000000000000000000000000000000815260206004820152601f60248201527f526f6c65733a206163636f756e7420616c72656164792068617320726f6c6500604482015290519081900360640190fd5b73ffffffffffffffffffffffffffffffffffffffff1660009081526020919091526040902080547fffffffffffffffffffffffffffffffffffffffffffffffffffffffffffffff00166001179055565b73ffffffffffffffffffffffffffffffffffffffff8316610dcd576040517f08c379a000000000000000000000000000000000000000000000000000000000815260040180806020018281038252602481526020018061152f6024913960400191505060405180910390fd5b73ffffffffffffffffffffffffffffffffffffffff8216610e39576040517f08c379a00000000000000000000000000000000000000000000000000000000081526004018080602001828103825260228152602001806114656022913960400191505060405180910390fd5b73ffffffffffffffffffffffffffffffffffffffff808416600081815260026020908152604080832094871680845294825291829020859055815185815291517f8c5be1e5ebec7d5bd14f71427d1e84f3dd0314c0f7b2291e5b200ac8c7c3b9259281900390910190a3505050565b600073ffffffffffffffffffffffffffffffffffffffff8216610f16576040517f08c379a00000000000000000000000000000000000000000000000000000000081526004018080602001828103825260228152602001806114e86022913960400191505060405180910390fd5b5073ffffffffffffffffffffffffffffffffffffffff166000908152602091909152604090205460ff1690565b73ffffffffffffffffffffffffffffffffffffffff8316610faf576040517f08c379a000000000000000000000000000000000000000000000000000000000815260040180806020018281038252602581526020018061150a6025913960400191505060405180910390fd5b73ffffffffffffffffffffffffffffffffffffffff821661101b576040517f08c379a000000000000000000000000000000000000000000000000000000000815260040180806020018281038252602381526020018061141c6023913960400191505060405180910390fd5b73ffffffffffffffffffffffffffffffffffffffff831660009081526001602052604090205461104b90826110f0565b73ffffffffffffffffffffffffffffffffffffffff808516600090815260016020526040808220939093559084168152205461108790826111b6565b73ffffffffffffffffffffffffffffffffffffffff80841660008181526001602090815260409182902094909455805185815290519193928716927fddf252ad1be2c89b69c2b068fc378daa952ba7f163c4a11628f55a4df523b3ef92918290030190a3505050565b60008282111561116157604080517f08c379a000000000000000000000000000000000000000000000000000000000815260206004820152601e60248201527f536166654d6174683a207375627472616374696f6e206f766572666c6f770000604482015290519081900360640190fd5b50900390565b61117260048261136f565b60405173ffffffffffffffffffffffffffffffffffffffff8216907fba73eacdfe215f630abb6a8a78e5be613e50918b52e691bba35d46c06e20d6c890600090a250565b60008282018381101561122a57604080517f08c379a000000000000000000000000000000000000000000000000000000000815260206004820152601b60248201527f536166654d6174683a206164646974696f6e206f766572666c6f770000000000604482015290519081900360640190fd5b9392505050565b73ffffffffffffffffffffffffffffffffffffffff811660008181526005602052604080822080547fffffffffffffffffffffffffffffffffffffffffffffffffffffffffffffff00166001179055517f44d5fe68b00f68950fb9c1ff0a61ef7f747b1a36359a7e3a7f3324db4b8789679190a250565b3390565b73ffffffffffffffffffffffffffffffffffffffff811660008181526005602052604080822080547fffffffffffffffffffffffffffffffffffffffffffffffffffffffffffffff00169055517f1747ca720b1a174a464b6513ace29b1d3190b5f632b9f34147017c81425bfde89190a250565b61132b600482610c9b565b60405173ffffffffffffffffffffffffffffffffffffffff8216907fa6124c7f565d239231ddc9de42e684db7443c994c658117542be9c50f561943890600090a250565b6113798282610ea8565b6113ce576040517f08c379a00000000000000000000000000000000000000000000000000000000081526004018080602001828103825260218152602001806114c76021913960400191505060405180910390fd5b73ffffffffffffffffffffffffffffffffffffffff1660009081526020919091526040902080547fffffffffffffffffffffffffffffffffffffffffffffffffffffffffffffff0016905556fe45524332303a207472616e7366657220746f20746865207a65726f20616464726573734f776e61626c653a206e6577206f776e657220697320746865207a65726f206164647265737345524332303a20617070726f766520746f20746865207a65726f2061646472657373426c61636b6c69737441646d696e526f6c653a2063616c6c657220646f6573206e6f7420686176652074686520426c61636b6c69737441646d696e20726f6c65526f6c65733a206163636f756e7420646f6573206e6f74206861766520726f6c65526f6c65733a206163636f756e7420697320746865207a65726f206164647265737345524332303a207472616e736665722066726f6d20746865207a65726f206164647265737345524332303a20617070726f76652066726f6d20746865207a65726f2061646472657373a2646970667358221220c96c80443017ee1ee7bd4f706330fa45d14366d6dc75e9ce002e3ccb444d379764736f6c634300060c0033526f6c65733a206163636f756e7420697320746865207a65726f2061646472657373",
  "linkReferences": {},
  "deployedLinkReferences": {}
}