{
  "_format": "hh-sol-artifact-1",
  "contractName": "CoinFactory",
  "sourceName": "contracts/tokens/HDUMToken.sol",
  "abi": [
    {
      "anonymous": false,
      "inputs": [
        {
          "indexed": true,
          "internalType": "address",
          "name": "owner",
          "type": "address"
        },
        {
          "indexed": true,
          "internalType": "address",
          "name": "spender",
          "type": "address"
        },
        {
          "indexed": false,
          "internalType": "uint256",
          "name": "value",
          "type": "uint256"
        }
      ],
      "name": "Approval",
      "type": "event"
    },
    {
      "anonymous": false,
      "inputs": [
        {
          "indexed": true,
          "internalType": "address",
          "name": "account",
          "type": "address"
        }
      ],
      "name": "CoinFactoryAdminRoleAdded",
      "type": "event"
    },
    {
      "anonymous": false,
      "inputs": [
        {
          "indexed": true,
          "internalType": "address",
          "name": "account",
          "type": "address"
        }
      ],
      "name": "CoinFactoryAdminRoleRemoved",
      "type": "event"
    },
    {
      "anonymous": false,
      "inputs": [
        {
          "indexed": true,
          "internalType": "address",
          "name": "account",
          "type": "address"
        },
        {
          "indexed": false,
          "internalType": "uint256",
          "name": "amount",
          "type": "uint256"
        }
      ],
      "name": "Issue",
      "type": "event"
    },
    {
      "anonymous": false,
      "inputs": [
        {
          "indexed": true,
          "internalType": "address",
          "name": "previousOwner",
          "type": "address"
        },
        {
          "indexed": true,
          "internalType": "address",
          "name": "newOwner",
          "type": "address"
        }
      ],
      "name": "OwnershipTransferred",
      "type": "event"
    },
    {
      "anonymous": false,
      "inputs": [
        {
          "indexed": true,
          "internalType": "address",
          "name": "account",
          "type": "address"
        },
        {
          "indexed": false,
          "internalType": "uint256",
          "name": "value",
          "type": "uint256"
        }
      ],
      "name": "Redeem",
      "type": "event"
    },
    {
      "anonymous": false,
      "inputs": [
        {
          "indexed": true,
          "internalType": "address",
          "name": "from",
          "type": "address"
        },
        {
          "indexed": true,
          "internalType": "address",
          "name": "to",
          "type": "address"
        },
        {
          "indexed": false,
          "internalType": "uint256",
          "name": "value",
          "type": "uint256"
        }
      ],
      "name": "Transfer",
      "type": "event"
    },
    {
      "inputs": [
        {
          "internalType": "address",
          "name": "account",
          "type": "address"
        }
      ],
      "name": "addCoinFactoryAdmin",
      "outputs": [],
      "stateMutability": "nonpayable",
      "type": "function"
    },
    {
      "inputs": [
        {
          "internalType": "address",
          "name": "owner",
          "type": "address"
        },
        {
          "internalType": "address",
          "name": "spender",
          "type": "address"
        }
      ],
      "name": "allowance",
      "outputs": [
        {
          "internalType": "uint256",
          "name": "",
          "type": "uint256"
        }
      ],
      "stateMutability": "view",
      "type": "function"
    },
    {
      "inputs": [
        {
          "internalType": "address",
          "name": "spender",
          "type": "address"
        },
        {
          "internalType": "uint256",
          "name": "value",
          "type": "uint256"
        }
      ],
      "name": "approve",
      "outputs": [
        {
          "internalType": "bool",
          "name": "",
          "type": "bool"
        }
      ],
      "stateMutability": "nonpayable",
      "type": "function"
    },
    {
      "inputs": [
        {
          "internalType": "address",
          "name": "account",
          "type": "address"
        }
      ],
      "name": "balanceOf",
      "outputs": [
        {
          "internalType": "uint256",
          "name": "",
          "type": "uint256"
        }
      ],
      "stateMutability": "view",
      "type": "function"
    },
    {
      "inputs": [
        {
          "internalType": "address",
          "name": "spender",
          "type": "address"
        },
        {
          "internalType": "uint256",
          "name": "subtractedValue",
          "type": "uint256"
        }
      ],
      "name": "decreaseAllowance",
      "outputs": [
        {
          "internalType": "bool",
          "name": "",
          "type": "bool"
        }
      ],
      "stateMutability": "nonpayable",
      "type": "function"
    },
    {
      "inputs": [
        {
          "internalType": "address",
          "name": "spender",
          "type": "address"
        },
        {
          "internalType": "uint256",
          "name": "addedValue",
          "type": "uint256"
        }
      ],
      "name": "increaseAllowance",
      "outputs": [
        {
          "internalType": "bool",
          "name": "",
          "type": "bool"
        }
      ],
      "stateMutability": "nonpayable",
      "type": "function"
    },
    {
      "inputs": [
        {
          "internalType": "address",
          "name": "account",
          "type": "address"
        }
      ],
      "name": "isCoinFactoryAdmin",
      "outputs": [
        {
          "internalType": "bool",
          "name": "",
          "type": "bool"
        }
      ],
      "stateMutability": "view",
      "type": "function"
    },
    {
      "inputs": [
        {
          "internalType": "address",
          "name": "account",
          "type": "address"
        },
        {
          "internalType": "uint256",
          "name": "amount",
          "type": "uint256"
        }
      ],
      "name": "issue",
      "outputs": [
        {
          "internalType": "bool",
          "name": "",
          "type": "bool"
        }
      ],
      "stateMutability": "nonpayable",
      "type": "function"
    },
    {
      "inputs": [],
      "name": "owner",
      "outputs": [
        {
          "internalType": "address",
          "name": "",
          "type": "address"
        }
      ],
      "stateMutability": "view",
      "type": "function"
    },
    {
      "inputs": [
        {
          "internalType": "address",
          "name": "account",
          "type": "address"
        },
        {
          "internalType": "uint256",
          "name": "amount",
          "type": "uint256"
        }
      ],
      "name": "redeem",
      "outputs": [
        {
          "internalType": "bool",
          "name": "",
          "type": "bool"
        }
      ],
      "stateMutability": "nonpayable",
      "type": "function"
    },
    {
      "inputs": [
        {
          "internalType": "address",
          "name": "account",
          "type": "address"
        }
      ],
      "name": "removeCoinFactoryAdmin",
      "outputs": [],
      "stateMutability": "nonpayable",
      "type": "function"
    },
    {
      "inputs": [],
      "name": "renounceCoinFactoryAdmin",
      "outputs": [],
      "stateMutability": "nonpayable",
      "type": "function"
    },
    {
      "inputs": [],
      "name": "renounceOwnership",
      "outputs": [],
      "stateMutability": "nonpayable",
      "type": "function"
    },
    {
      "inputs": [],
      "name": "totalSupply",
      "outputs": [
        {
          "internalType": "uint256",
          "name": "",
          "type": "uint256"
        }
      ],
      "stateMutability": "view",
      "type": "function"
    },
    {
      "inputs": [
        {
          "internalType": "address",
          "name": "recipient",
          "type": "address"
        },
        {
          "internalType": "uint256",
          "name": "amount",
          "type": "uint256"
        }
      ],
      "name": "transfer",
      "outputs": [
        {
          "internalType": "bool",
          "name": "",
          "type": "bool"
        }
      ],
      "stateMutability": "nonpayable",
      "type": "function"
    },
    {
      "inputs": [
        {
          "internalType": "address",
          "name": "sender",
          "type": "address"
        },
        {
          "internalType": "address",
          "name": "recipient",
          "type": "address"
        },
        {
          "internalType": "uint256",
          "name": "amount",
          "type": "uint256"
        }
      ],
      "name": "transferFrom",
      "outputs": [
        {
          "internalType": "bool",
          "name": "",
          "type": "bool"
        }
      ],
      "stateMutability": "nonpayable",
      "type": "function"
    },
    {
      "inputs": [
        {
          "internalType": "address",
          "name": "newOwner",
          "type": "address"
        }
      ],
      "name": "transferOwnership",
      "outputs": [],
      "stateMutability": "nonpayable",
      "type": "function"
    }
  ],
  "bytecode": "0x60806040523480156200001157600080fd5b5060006200001e62000079565b600080546001600160a01b0319166001600160a01b0383169081178255604051929350917f8be0079c531659141344cd1fd0a4f28419497f9722a3daafe3b4186f6b6457e0908290a35062000073336200007d565b620001bc565b3390565b62000098816004620000cf60201b62000afc1790919060201c565b6040516001600160a01b038216907f9e8b5fbf24fd7f86d2666e8f27ffdeb7c0aa870faa1980ad7290677152938dfa90600090a250565b620000db828262000153565b156200012e576040805162461bcd60e51b815260206004820152601f60248201527f526f6c65733a206163636f756e7420616c72656164792068617320726f6c6500604482015290519081900360640190fd5b6001600160a01b0316600090815260209190915260409020805460ff19166001179055565b60006001600160a01b0382166200019c5760405162461bcd60e51b8152600401808060200182810382526022815260200180620017d66022913960400191505060405180910390fd5b506001600160a01b03166000908152602091909152604090205460ff1690565b61160a80620001cc6000396000f3fe608060405234801561001057600080fd5b506004361061011b5760003560e01c8063867904b4116100b2578063a9059cbb11610081578063dd62ed3e11610066578063dd62ed3e146103c3578063e5c855c9146103fe578063f2fde38b146104315761011b565b8063a9059cbb14610357578063cf7d6db7146103905761011b565b8063867904b4146102815780638da5cb5b146102ba578063998b4792146102eb578063a457c2d71461031e5761011b565b806332068e91116100ee57806332068e9114610203578063395093511461020d57806370a0823114610246578063715018a6146102795761011b565b8063095ea7b31461012057806318160ddd1461016d5780631e9a69501461018757806323b872dd146101c0575b600080fd5b6101596004803603604081101561013657600080fd5b5073ffffffffffffffffffffffffffffffffffffffff8135169060200135610464565b604080519115158252519081900360200190f35b61017561047a565b60408051918252519081900360200190f35b6101596004803603604081101561019d57600080fd5b5073ffffffffffffffffffffffffffffffffffffffff8135169060200135610480565b610159600480360360608110156101d657600080fd5b5073ffffffffffffffffffffffffffffffffffffffff8135811691602081013590911690604001356104ea565b61020b610548565b005b6101596004803603604081101561022357600080fd5b5073ffffffffffffffffffffffffffffffffffffffff8135169060200135610553565b6101756004803603602081101561025c57600080fd5b503573ffffffffffffffffffffffffffffffffffffffff16610596565b61020b6105be565b6101596004803603604081101561029757600080fd5b5073ffffffffffffffffffffffffffffffffffffffff81351690602001356106d5565b6102c261073f565b6040805173ffffffffffffffffffffffffffffffffffffffff9092168252519081900360200190f35b61020b6004803603602081101561030157600080fd5b503573ffffffffffffffffffffffffffffffffffffffff1661075b565b6101596004803603604081101561033457600080fd5b5073ffffffffffffffffffffffffffffffffffffffff813516906020013561080f565b6101596004803603604081101561036d57600080fd5b5073ffffffffffffffffffffffffffffffffffffffff8135169060200135610852565b610159600480360360208110156103a657600080fd5b503573ffffffffffffffffffffffffffffffffffffffff1661085f565b610175600480360360408110156103d957600080fd5b5073ffffffffffffffffffffffffffffffffffffffff81358116916020013516610872565b61020b6004803603602081101561041457600080fd5b503573ffffffffffffffffffffffffffffffffffffffff166108aa565b61020b6004803603602081101561044757600080fd5b503573ffffffffffffffffffffffffffffffffffffffff1661095b565b6000610471338484610bc2565b50600192915050565b60035490565b600061048b3361085f565b6104e0576040517f08c379a00000000000000000000000000000000000000000000000000000000081526004018080602001828103825260448152602001806115056044913960600191505060405180910390fd5b6104718383610d09565b60006104f7848484610e65565b73ffffffffffffffffffffffffffffffffffffffff841660009081526002602090815260408083203380855292529091205461053e9186916105399086611012565b610bc2565b5060019392505050565b61055133611089565b565b33600081815260026020908152604080832073ffffffffffffffffffffffffffffffffffffffff87168452909152812054909161047191859061053990866110d8565b73ffffffffffffffffffffffffffffffffffffffff1660009081526001602052604090205490565b6105c6611153565b73ffffffffffffffffffffffffffffffffffffffff166105e461073f565b73ffffffffffffffffffffffffffffffffffffffff161461066657604080517f08c379a000000000000000000000000000000000000000000000000000000000815260206004820181905260248201527f4f776e61626c653a2063616c6c6572206973206e6f7420746865206f776e6572604482015290519081900360640190fd5b6000805460405173ffffffffffffffffffffffffffffffffffffffff909116907f8be0079c531659141344cd1fd0a4f28419497f9722a3daafe3b4186f6b6457e0908390a3600080547fffffffffffffffffffffffff0000000000000000000000000000000000000000169055565b60006106e03361085f565b610735576040517f08c379a00000000000000000000000000000000000000000000000000000000081526004018080602001828103825260448152602001806115056044913960600191505060405180910390fd5b6104718383611157565b60005473ffffffffffffffffffffffffffffffffffffffff1690565b610763611153565b73ffffffffffffffffffffffffffffffffffffffff1661078161073f565b73ffffffffffffffffffffffffffffffffffffffff161461080357604080517f08c379a000000000000000000000000000000000000000000000000000000000815260206004820181905260248201527f4f776e61626c653a2063616c6c6572206973206e6f7420746865206f776e6572604482015290519081900360640190fd5b61080c816112b4565b50565b33600081815260026020908152604080832073ffffffffffffffffffffffffffffffffffffffff8716845290915281205490916104719185906105399086611012565b6000610471338484610e65565b600061086c600483611303565b92915050565b73ffffffffffffffffffffffffffffffffffffffff918216600090815260026020908152604080832093909416825291909152205490565b6108b2611153565b73ffffffffffffffffffffffffffffffffffffffff166108d061073f565b73ffffffffffffffffffffffffffffffffffffffff161461095257604080517f08c379a000000000000000000000000000000000000000000000000000000000815260206004820181905260248201527f4f776e61626c653a2063616c6c6572206973206e6f7420746865206f776e6572604482015290519081900360640190fd5b61080c81611089565b610963611153565b73ffffffffffffffffffffffffffffffffffffffff1661098161073f565b73ffffffffffffffffffffffffffffffffffffffff1614610a0357604080517f08c379a000000000000000000000000000000000000000000000000000000000815260206004820181905260248201527f4f776e61626c653a2063616c6c6572206973206e6f7420746865206f776e6572604482015290519081900360640190fd5b73ffffffffffffffffffffffffffffffffffffffff8116610a6f576040517f08c379a00000000000000000000000000000000000000000000000000000000081526004018080602001828103825260268152602001806114946026913960400191505060405180910390fd5b6000805460405173ffffffffffffffffffffffffffffffffffffffff808516939216917f8be0079c531659141344cd1fd0a4f28419497f9722a3daafe3b4186f6b6457e091a3600080547fffffffffffffffffffffffff00000000000000000000000000000000000000001673ffffffffffffffffffffffffffffffffffffffff92909216919091179055565b610b068282611303565b15610b7257604080517f08c379a000000000000000000000000000000000000000000000000000000000815260206004820152601f60248201527f526f6c65733a206163636f756e7420616c72656164792068617320726f6c6500604482015290519081900360640190fd5b73ffffffffffffffffffffffffffffffffffffffff1660009081526020919091526040902080547fffffffffffffffffffffffffffffffffffffffffffffffffffffffffffffff00166001179055565b73ffffffffffffffffffffffffffffffffffffffff8316610c2e576040517f08c379a00000000000000000000000000000000000000000000000000000000081526004018080602001828103825260248152602001806115b16024913960400191505060405180910390fd5b73ffffffffffffffffffffffffffffffffffffffff8216610c9a576040517f08c379a00000000000000000000000000000000000000000000000000000000081526004018080602001828103825260228152602001806114ba6022913960400191505060405180910390fd5b73ffffffffffffffffffffffffffffffffffffffff808416600081815260026020908152604080832094871680845294825291829020859055815185815291517f8c5be1e5ebec7d5bd14f71427d1e84f3dd0314c0f7b2291e5b200ac8c7c3b9259281900390910190a3505050565b73ffffffffffffffffffffffffffffffffffffffff8216610d75576040517f08c379a00000000000000000000000000000000000000000000000000000000081526004018080602001828103825260298152602001806114dc6029913960400191505060405180910390fd5b600354610d829082611012565b60035573ffffffffffffffffffffffffffffffffffffffff8216600090815260016020526040902054610db59082611012565b73ffffffffffffffffffffffffffffffffffffffff83166000818152600160209081526040808320949094558351858152935191937fddf252ad1be2c89b69c2b068fc378daa952ba7f163c4a11628f55a4df523b3ef929081900390910190a360408051828152905173ffffffffffffffffffffffffffffffffffffffff8416917f222838db2794d11532d940e8dec38ae307ed0b63cd97c233322e221f998767a6919081900360200190a25050565b73ffffffffffffffffffffffffffffffffffffffff8316610ed1576040517f08c379a000000000000000000000000000000000000000000000000000000000815260040180806020018281038252602581526020018061158c6025913960400191505060405180910390fd5b73ffffffffffffffffffffffffffffffffffffffff8216610f3d576040517f08c379a00000000000000000000000000000000000000000000000000000000081526004018080602001828103825260238152602001806114716023913960400191505060405180910390fd5b73ffffffffffffffffffffffffffffffffffffffff8316600090815260016020526040902054610f6d9082611012565b73ffffffffffffffffffffffffffffffffffffffff8085166000908152600160205260408082209390935590841681522054610fa990826110d8565b73ffffffffffffffffffffffffffffffffffffffff80841660008181526001602090815260409182902094909455805185815290519193928716927fddf252ad1be2c89b69c2b068fc378daa952ba7f163c4a11628f55a4df523b3ef92918290030190a3505050565b60008282111561108357604080517f08c379a000000000000000000000000000000000000000000000000000000000815260206004820152601e60248201527f536166654d6174683a207375627472616374696f6e206f766572666c6f770000604482015290519081900360640190fd5b50900390565b61109460048261139e565b60405173ffffffffffffffffffffffffffffffffffffffff8216907f15bf0aef1cc552f782bc5ad7121d42ea78efbfbec8dd9e16fb9f37967ad763fb90600090a250565b60008282018381101561114c57604080517f08c379a000000000000000000000000000000000000000000000000000000000815260206004820152601b60248201527f536166654d6174683a206164646974696f6e206f766572666c6f770000000000604482015290519081900360640190fd5b9392505050565b3390565b73ffffffffffffffffffffffffffffffffffffffff82166111c3576040517f08c379a000000000000000000000000000000000000000000000000000000000815260040180806020018281038252602681526020018061144b6026913960400191505060405180910390fd5b6003546111d090826110d8565b60035573ffffffffffffffffffffffffffffffffffffffff821660009081526001602052604090205461120390826110d8565b73ffffffffffffffffffffffffffffffffffffffff831660008181526001602090815260408083209490945583518581529351929391927fddf252ad1be2c89b69c2b068fc378daa952ba7f163c4a11628f55a4df523b3ef9281900390910190a360408051828152905173ffffffffffffffffffffffffffffffffffffffff8416917fc65a3f767206d2fdcede0b094a4840e01c0dd0be1888b5ba800346eaa0123c16919081900360200190a25050565b6112bf600482610afc565b60405173ffffffffffffffffffffffffffffffffffffffff8216907f9e8b5fbf24fd7f86d2666e8f27ffdeb7c0aa870faa1980ad7290677152938dfa90600090a250565b600073ffffffffffffffffffffffffffffffffffffffff8216611371576040517f08c379a000000000000000000000000000000000000000000000000000000000815260040180806020018281038252602281526020018061156a6022913960400191505060405180910390fd5b5073ffffffffffffffffffffffffffffffffffffffff166000908152602091909152604090205460ff1690565b6113a88282611303565b6113fd576040517f08c379a00000000000000000000000000000000000000000000000000000000081526004018080602001828103825260218152602001806115496021913960400191505060405180910390fd5b73ffffffffffffffffffffffffffffffffffffffff1660009081526020919091526040902080547fffffffffffffffffffffffffffffffffffffffffffffffffffffffffffffff0016905556fe436f696e466163746f72793a20697373756520746f20746865207a65726f206164647265737345524332303a207472616e7366657220746f20746865207a65726f20616464726573734f776e61626c653a206e6577206f776e657220697320746865207a65726f206164647265737345524332303a20617070726f766520746f20746865207a65726f2061646472657373436f696e466163746f72793a2072656465656d2066726f6d20746865207a65726f2061646472657373436f696e466163746f727941646d696e526f6c653a2063616c6c657220646f6573206e6f7420686176652074686520436f696e466163746f727941646d696e20726f6c65526f6c65733a206163636f756e7420646f6573206e6f74206861766520726f6c65526f6c65733a206163636f756e7420697320746865207a65726f206164647265737345524332303a207472616e736665722066726f6d20746865207a65726f206164647265737345524332303a20617070726f76652066726f6d20746865207a65726f2061646472657373a2646970667358221220e86b5ca726382489077f0421a6a97c3254aa27dafdce381321f5a99d4323618864736f6c634300060c0033526f6c65733a206163636f756e7420697320746865207a65726f2061646472657373",
  "linkReferences": {},
  "deployedLinkReferences": {}
}